:10000000D1EF04F00000000000EF00F0000000005D
:0A0010000000000000000000F3D71C
:10001C00240E0C6EB50E0D6E0D2EFED70C2EFCD7CD
:06002C00000000001200BC
:0C003200000000000000000000001200B0
:0A003E00530E0D6E0D2EFED71200BA
:10004800086A096A100E0C6E013408360936045025
:10005800085E0550D8A0053C095ED8B007D004500A
:1000680008260550D8B0053C0926D8900036013638
:060078000C2EEAD7120075
:10007E0063BE02D0839E01D0838E63BC02D0839C6C
:10008E0001D0838C63BA02D0839A01D0838A63B87D
:10009E0002D0839801D083884DB002D0848001D0E5
:1000AE0084908482BFDF849263B602D0839E01D097
:1000BE00838E63B402D0839C01D0838C63B202D052
:1000CE00839A01D0838A63B002D0839801D083884B
:1000DE004DB002D0848001D084908482A3DF8492BC
:0C00EE004DA002D094DF01D0A3DF12006F
:0C00FA00240E0D6E0D2EFED7000012002B
:10010600FF0E4E6EFF0E4F6EFF0E506EFF0E516EBF
:10011600C26A3B1C006E0050C116070EC012C08E8C
:04012600C280120081
:10012A000134083609360450085E0550D8A0053C4B
:10013A00095E003601360F0E0C6E01340836093698
:10014A00045000A006D0085E0550D8A0053C095E00
:10015A0005D008260550D8B0053C092600360136D8
:10016A000C2EEBD700B006D0045008260550D8B0A4
:08017A00053C092600001200FB
:100182000450085E0550D8A0053C095E0650D8A070
:10019200063C0A5E0750D8A0073C0B5E0336070EEA
:1001A2000C6E0334083609360A360B36045003A0A7
:1001B2000ED0085E0550D8A0053C095E0650D8A0B6
:1001C200063C0A5E0750D8A0073C0B5E0DD00826FD
:1001D2000550D8B0053C09260650D8B0063C0A2680
:1001E2000750D8B0073C0B2603360C2EDAD7023460
:1001F200083609360A360B36045003A00ED0085EC4
:100202000550D8A0053C095E0650D8A0063C0A5EFF
:100212000750D8A0073C0B5E0DD008260550D8B079
:10022200053C09260650D8B0063C0A260750D8B02D
:10023200073C0B260236070E0C6E023408360936CE
:100242000A360B36045002A00ED0085E0550D8A024
:10025200053C095E0650D8A0063C0A5E0750D8A0AD
:10026200073C0B5E0DD008260550D8B0053C092688
:100272000650D8B0063C0A260750D8B0073C0B26D9
:1002820002360C2EDAD70134083609360A360B3616
:10029200045002A00ED0085E0550D8A0053C095EAD
:1002A2000650D8A0063C0A5E0750D8A0073C0B5E59
:1002B2000DD008260550D8B0053C09260650D8B006
:1002C200063C0A260750D8B0073C0B260136070E1B
:1002D2000C6E0134083609360A360B36045001A07A
:1002E2000ED0085E0550D8A0053C095E0650D8A085
:1002F200063C0A5E0750D8A0073C0B5E0DD00826CC
:100302000550D8B0053C09260650D8B0063C0A264E
:100312000750D8B0073C0B2601360C2EDAD7003432
:10032200083609360A360B36045001A00ED0085E94
:100332000550D8A0053C095E0650D8A0063C0A5ECE
:100342000750D8A0073C0B5E0DD008260550D8B048
:10035200053C09260650D8B0063C0A260750D8B0FC
:10036200073C0B260036070E0C6E003408360936A1
:100372000A360B36045000A00ED0085E0550D8A0F5
:10038200053C095E0650D8A0063C0A5E0750D8A07C
:10039200073C0B5E0DD008260550D8B0053C092657
:1003A2000650D8B0063C0A260750D8B0073C0B26A8
:1003B20000360C2EDAD700B00ED0045008260550B5
:1003C200D8B0053C09260650D8B0063C0A2607508C
:0803D200D8B0073C0B26120015
:1003DA00606A050E605C0AE260505E24E16E000EFF
:1003EA005F20E26E200EE66E602AF3D760505E242C
:1003FA00E16E000E5F20E26EE66A600660505E24DF
:10040A00616E000E5F20626E0A0E046E000E056EAB
:10041A005CC000F05DC001F012DE08C000F009C047
:10042A0001F0300E002661C0E1FF62C0E2FF00C0A9
:10043A00E6FF0A0E046E000E056E5CC000F05DC099
:10044A0001F0FDDD00C05CF001C05DF0000E011896
:10045A0002E1000E001801E102D06006CFD71200B7
:0C046A004D905CC063F006DE4D80120077
:100476000B1E0A1E091E081E082AD8B4092AD8B45B
:080486000A2AD8B40B2A120067
:10048E00969296909598959A959C959E8492849026
:10049E00839E839C839A8398BADDB9DDB8DD838A07
:1004AE0083888482BFDD8492B2DD8482BBDD849238
:1004BE00AEDD8482B7DD8492AADD83988482B2DDBC
:1004CE008492A5DD8482AEDD8492839A838E8482AB
:1004DE00A9DD84929CDD839E83888482A3DD849231
:1004EE00839884829FDD849292DD84829BDD849248
:1004FE008388848297DD84928ADD8398848292DD5C
:10050E008492838E838C838A838884828BDD84920B
:06051E007EDD4D8012009D
:10052400C26A3B1C006E0050C116070EC012C08E7A
:1005340052C000F000360090003600900050C21205
:10054400C280D9DDC282C2A201D0FDD7C4CF01F0DE
:0E055400006AC3500012000E0112C290120085
:100562000900F5CFE6FF0006FBE10106F9E1120002
:10057200806A816A826A836A846A010E926E0F0EB1
:10058200936E946A956A966A0E0EC16E070EB46EE9
:06059200F16AB8DD120061
:10059800546A54505224E96E000E5320EA6EEE520B
:1005A8000BE054505224E96E000E5320EA6EEECF51
:0A05B8005CF057DF542AEDD7120063
:1005C2000450000A08E10550000A05E1FF0E006E22
:1005D2007F0E016E57D00D6A096A086A0150001039
:1005E200D8B4000C015005180A6E0ABE0D1E0B6A23
:1005F20005AE05D0041E051E042AD8B4052A01AE94
:1006020005D0001E011E002AD8B4012A015005108F
:100612000A6E0ABE10D088DD0BB020D00DAE000CE1
:10062200001E011E002AD8B4012A081E091E082A2B
:10063200D8B4092A000C05AE0DD001BE07D0015076
:10064200096E0050086E016A006AE8D7016A006A02
:10065200002A000C011E001E0B2ADDD7082AD8B47E
:10066200092A0450085CD8A4D9D70550095CD8A43B
:10067200D5D7096A086A002AD8B4012A01AECED7B2
:060682000000FF0C120055
:10068800586A596A52C05AF053C05BF0800E53182A
:10069800006E800E005C02E1000E525C0BE2010E5F
:1006A800586E000E596E525000085A6E53C05BF0D7
:1006B800000E5B565AC05CF05BC05DF054C05EF043
:1006C80055C05FF086DE060E566E000E576E000EA1
:1006D800006E5750005C02E15650000819E256506F
:1006E8005424E16E57505520E26E010E565C006EA0
:1006F800000E5758016E00505424E96E01505520E1
:10070800EA6EEECFE6FF010E565E000E575ADFD7AF
:1007180054C0E1FF55C0E2FF200EE66E5850591054
:100728001AE0566A576A56505424E96E57505520B5
:10073800EA6EEE50200A03E1564A572AF4D7010E12
:10074800565E000E575A56505424E16E57505520A5
:08075800E26E2D0EE66E1200A8
:100760000FD0800E526E19D0C00E526E16D0940E5D
:10077000526E13D0D40E526E10D0800E526E0DD029
:100780005250010AEEE05250020AEEE05250030AC3
:10079000EEE05250040AEEE0F0D75304006E5250DF
:1007A000002600C052F000C063F069DC4D90566A2C
:1007B00056505424E96E000E5520EA6EEE520BE0BE
:1007C00056505424E96E000E5520EA6EEECF5CF0D0
:0A07D0004CDE562AEDD74D801200D2
:1007DA00546A556A52C003F053C004F052C005F07F
:1007EA0053C006F003C0E9FF04C0EAFFEE50200A36
:1007FA0004E15450551001E110D0010E546E000E60
:10080A00556E03C0E9FF04C0EAFF05C0E1FF06C058
:10081A00E2FFEECFE6FF054A062A03C001F004C054
:10082A0002F0034A042A01C0E9FF02C0EAFFEE50BF
:0E083A00000AD8E152C000F053C001F01200D5
:100848000450000A12E10550000A0FE10650000AA0
:100858000CE10750000A09E1FF0E006EFF0E016E61
:10086800FF0E026E7F0E036E97D00C6A07BE0C2A2D
:100878000D6A0B6A0A6A096A086A035002100110B5
:100888000010D8B484D0035007180E6E0EBE0D1E8B
:1008980007AE0BD0041E051E061E071E042AD8B478
:1008A800052AD8B4062AD8B4072A03AE0BD0001EEE
:1008B800011E021E031E002AD8B4012AD8B4022A37
:1008C800D8B4032A035007100E6E0EBE1CD055DC98
:1008D8000CBE36D00DAE5BD0001E011E021E031EDC
:1008E800002AD8B4012AD8B4022AD8B4032A081E88
:1008F800091E0A1E0B1E082AD8B4092AD8B40A2AC7
:10090800D8B40B2A44D007AE15D003BE0DD003507F
:100918000B6E02500A6E0150096E0050086E036A91
:10092800026A016A006AD6D7036A026A016A006A23
:10093800002A000C031E021E011E001E0C8EC7D7C3
:10094800082AD8B4092AD8B40A2AD8B40B2A0450D9
:10095800085CD8A4BFD70550095CD8A4BBD70650FB
:100968000A5CD8A4B7D707500B5CD8A4B3D70B6AD6
:100978000A6A096A086A002AD8B4012AD8B4022A7D
:10098800D8B4032A03AEA6D70E6A0E88FF0C0E6AE7
:0A0998000CA001D06CDD000F12006E
:1009A200C6EC05F0E5DD72DD0C0E636E3FEC00F087
:1009B200010E636E3FEC00F0526AB3DD00C023F01B
:1009C20001C024F000501F2601502022000E01BE5B
:1009D200FF0E21222222254A262A800E2618006E88
:1009E200800E010A005C02E1F40E255CD8A0B2D0B0
:1009F20025C004F026C005F0000E26BEFF0E066ECE
:100A0200076E1FC000F020C001F021C002F022C01A
:100A120003F019DF00C029F001C02AF01F6A206A22
:100A2200216A226A256A266A17C027F018C028F0B0
:100A320015C017F016C018F019C015F01AC016F03C
:100A42001DC019F01EC01AF01BC01DF01CC01EF004
:100A52002BC01BF02CC01CF03EC02BF03FC02CF072
:100A62003CC03EF03DC03FF040C03CF041C03DF0D4
:100A720000C040F001C041F017502724046E185006
:100A82002820056E155004261650052219500426FA
:100A92001A5005221D5004261E5005221B50042602
:100AA2001C5005222B5004262C5005223E500426B1
:100AB2003F5005223C5004263D500522045000269A
:100AC200055001220A0E046E000E056E79DD00C08B
:100AD20044F001C045F0030E026E42C005F043C06F
:100AE20006F0025005E0053605900636FF0FFAD7EC
:100AF20000C002F001C003F0023602900336025039
:100B02000524006E03500620016E0A0E046E000ECC
:100B1200056E56DD00C042F001C043F000C052F045
:100B220001C053F0460E546E000E556EACDD010E40
:100B3200526E010E536E2D0E546E000E556E0FDE68
:100B4200460E526E000E536E47DE00C052F001C0D8
:080B520053F021DD31D7FFD77C
:100B8C0010EE15F0310E006E010E016E5A0EF66E5F
:0E0B9C000B0EF76E000EF86EB1EC02F01200B8
:020B5A00000099
:020B5C00000097
:020B5E00000095
:020B6000000093
:020B6200000091
:040B6400000000008D
:020B680000008B
:020B6A00000089
:020B6C00000087
:020B6E00000085
:020B7000000083
:0E0B720054656D70657261747572613A200091
:010B80003044
:020B8100000072
:020B8300000070
:020B850000006E
:020B870000006C
:020B890000006A
:020000040030CA
:0D000100021F1EFF8381FF0FC00FE00F40A4
:00000001FF
