:100000000EEF00F00000000000EF00F00000000024
:0A0010000000000000000000F3D71C
:10001C00806A926A826A946A070EB46E0F0EC16E81
:10002C00846A966A836A956A010E836E828A8298C4
:10003C0084948096070E0B6E580E0C6E590E0D6E36
:10004C000D2EFED70C2EFCD70B2EFAD7000000007D
:10005C00829A8288070E0B6E580E0C6E590E0D6E1E
:10006C000D2EFED70C2EFCD70B2EFAD7000000005D
:10007C0082988484070E0B6E580E0C6E590E0D6E02
:10008C000D2EFED70C2EFCD70B2EFAD7000000003D
:10009C0084948086070E0B6E580E0C6E590E0D6EE6
:1000AC000D2EFED70C2EFCD70B2EFAD7000000001D
:1000BC00020E836E070E0B6E580E0C6E590E0D6EE3
:1000CC000D2EFED70C2EFCD70B2EFAD700000000FD
:1000DC00040E836E070E0B6E580E0C6E590E0D6EC1
:1000EC000D2EFED70C2EFCD70B2EFAD700000000DD
:1000FC00080E836E070E0B6E580E0C6E590E0D6E9D
:10010C000D2EFED70C2EFCD70B2EFAD700000000BC
:10011C00100E836E070E0B6E580E0C6E590E0D6E74
:10012C000D2EFED70C2EFCD70B2EFAD7000000009C
:10013C00200E836E070E0B6E580E0C6E590E0D6E44
:10014C000D2EFED70C2EFCD70B2EFAD7000000007C
:10015C00400E836E070E0B6E580E0C6E590E0D6E04
:10016C000D2EFED70C2EFCD70B2EFAD7000000005C
:10017C00800E836E070E0B6E580E0C6E590E0D6EA4
:10018C000D2EFED70C2EFCD70B2EFAD7000000003C
:04019C004BD7FFD767
:020000040030CA
:0D000100021F1EFF8381FF0FC00FE00F40A4
:00000001FF
