:1000000032EF02F00000000000EF00F000000000FE
:0A0010000000000000000000F3D71C
:0C001C00000000000000000000001200C6
:0A002800530E0D6E0D2EFED71200D0
:10003200240E0C6EB50E0D6E0D2EFED70C2EFCD7B7
:06004200000000001200A6
:10004800086A096A100E0C6E013408360936045025
:10005800085E0550D8A0053C095ED8B007D004500A
:1000680008260550D8B0053C0926D8900036013638
:060078000C2EEAD7120075
:10007E0077BE02D0819E01D0818E77BC02D0819C4A
:10008E0001D0818C77BA02D0819A01D0818A77B85B
:10009E0002D0819801D0818825B002D0848201D00F
:1000AE0084928480B4DF849077B602D0819E01D092
:1000BE00818E77B402D0819C01D0818C77B202D030
:1000CE00819A01D0818A77B002D0819801D081883F
:1000DE0025B002D0848201D08492848098DF8490EF
:0C00EE0025A002D09FDF01D098DF120097
:0C00FA00259070C077F0BEDF258012005A
:10010600746A050E745C0AE274507224E16E000E85
:100116007320E26E200EE66E742AF3D774507224B2
:10012600E16E000E7320E26EE66A74067450722465
:10013600756E000E7320766E0A0E046E000E056E46
:1001460070C000F071C001F07CDF08C000F009C08B
:1001560001F0300E002675C0E1FF76C0E2FF00C058
:10016600E6FF0A0E046E000E056E70C000F071C048
:1001760001F067DF00C070F001C071F0000E0118D9
:1001860002E1000E001801E102D07406CFD712007A
:100196006C6A6D6A66C06EF067C06FF0800E671895
:1001A600006E800E005C02E1000E665C0BE2010E42
:1001B6006C6E000E6D6E665000086E6E67C06FF056
:1001C600000E6F566EC070F06FC071F068C072F0AE
:1001D60069C073F095DF060E6A6E000E6B6E000E38
:1001E600006E6B50005C02E16A50000819E26A502A
:1001F6006824E16E6B506920E26E010E6A5C006E47
:10020600000E6B58016E00506824E96E015069209B
:10021600EA6EEECFE6FF010E6A5E000E6B5ADFD77E
:1002260068C0E1FF69C0E2FF200EE66E6C506D10FB
:100236001AE06A6A6B6A6A506824E96E6B50692034
:10024600EA6EEE50200A03E16A4A6B2AF4D7010EE1
:100256006A5E000E6B5A6A506824E16E6B50692024
:08026600E26E2D0EE66E12009F
:10026E00806A816A826A836A846A926A0F0E936ECA
:10027E00946A956A966A070EB46E0F0EC16EF16A95
:02028E0012005C
:10029000969096929398939A939C939E849084922E
:1002A000819E819C819A8198C4DEC3DEC2DE818AF0
:1002B00081888480B3DE8490BCDE8480AFDE84904D
:1002C000B8DE8480ABDE8490B4DE81988480A6DEC4
:1002D0008490AFDE8480A2DE8490819A818E8480B7
:1002E0009DDE8490A6DE819E8188848097DE849046
:1002F0008198848093DE84909CDE84808FDE84905D
:10030000818884808BDE849094DE8198848086DE70
:100310008490818E818C818A818884807FDE849024
:0603200088DE25801200BA
:100326000900F5CFE6FF0006FBE10106F9E1120040
:1003360066C0F6FF67C0F7FF68C0F8FF0800F5CF94
:0403460000F01200B1
:10034A00686A68506624E96E000E6720EA6EEE520B
:10035A000BE068506624E96E000E6720EA6EEECF65
:0A036A0070F0C6DE682AEDD712001D
:100374000FD0800E666E19D0C00E666E16D0940E25
:10038400666E13D0D40E666E10D0800E666E0DD0DD
:100394006650010AEEE06650020AEEE06650030A77
:1003A400EEE06650040AEEE0F0D76704006E665093
:1003B400002600C066F000C077F05FDE25906A6A10
:1003C4006A506824E96E000E6920EA6EEE520BE072
:1003D4006A506824E96E000E6920EA6EEECF70F070
:0A03E4008ADE6A2AEDD72580120098
:1003EE00F2CF03F0F29E66C0F6FF67C0F7FF68C05B
:1003FE00F8FFA68EBF0EA616A684A688550EA76E6B
:10040E00AA0EA76EA68200000A000000026A6AC049
:10041E00E9FF6BC0EAFF020E025C16E2016A200ED3
:10042E00015C07E2EECFF5FF00000F000000012A8D
:10043E00F6D7A68EBF0EA616A684550EA76EAA0ECA
:10044E00A76EA682022AE7D7A69403BE02D0F29E1A
:06045E0001D0F28E120035
:10046400430E156E6F0E166E6E0E176E740E186EAA
:10047400610E196E3D0E1A6E1B6A1C6A1D6A06DF38
:100484000C0E776EFADD010E776EF7DDEEDE000EF0
:10049400666E7F0E676E000E686E696E4ADF00C07E
:1004A4001CF0000E1D6E81B023D081B00FD0030E5E
:1004B4000B6E8A0E0C6E550E0D6E0D2EFED70C2E85
:1004C400FCD70B2EFAD700000000EFD71C4A1D2AD8
:1004D4001CC026F01DC027F0000E666E7F0E676EEE
:1004E400000E686E696E260E6A6E000E6B6E7DDFFE
:1004F40081B225D081B20FD0030E0B6E8A0E0C6E22
:10050400550E0D6E0D2EFED70C2EFCD70B2EFAD7E2
:1005140000000000EFD7010E1C5E000E1D5A1CC027
:1005240026F01DC027F0000E666E7F0E676E000E6B
:10053400686E696E260E6A6E000E6B6E56DF81B4AD
:1005440021D081B40FD0030E0B6E8A0E0C6E550EA3
:100554000D6E0D2EFED70C2EFCD70B2EFAD70000F5
:100564000000EFD71C6A1D6A266A276A000E666EB1
:100574007F0E676E000E686E696E260E6A6E000E40
:100584006B6E33DF010E666E010E676E150E686EBC
:10059400000E696EEDDE1CC066F01DC067F01E0E15
:1005A400686E000E696EF5DD1E0E666E000E676ED7
:0605B400CADE79D7FFD773
:020000040030CA
:0D000100021F1EFF8381FF0FC00FE00F40A4
:00000001FF
