:100000000EEF00F00000000000EF00F00000000024
:0A0010000000000000000000F3D71C
:10001C00836A956A0F0EC16E070EB46E806A926A7F
:10002C0080863F0E836E0D0E0B6EAF0E0C6EB60EF1
:10003C000D6E0D2EFED70C2EFCD70B2EFAD7000012
:10004C00060E836E0D0E0B6EAF0E0C6EB60E0D6E95
:10005C000D2EFED70C2EFCD70B2EFAD700005B0E04
:10006C00836E0D0E0B6EAF0E0C6EB60E0D6E0D2E4E
:10007C00FED70C2EFCD70B2EFAD700004F0E836E3A
:10008C000D0E0B6EAF0E0C6EB60E0D6E0D2EFED74A
:10009C000C2EFCD70B2EFAD70000660E836E0D0EBD
:1000AC000B6EAF0E0C6EB60E0D6E0D2EFED70C2E0B
:1000BC00FCD70B2EFAD700006D0E836E0D0E0B6E57
:1000CC00AF0E0C6EB60E0D6E0D2EFED70C2EFCD791
:1000DC000B2EFAD700007D0E836E0D0E0B6EAF0E3D
:1000EC000C6EB60E0D6E0D2EFED70C2EFCD70B2EF5
:1000FC00FAD70000070E836E0D0E0B6EAF0E0C6E52
:10010C00B60E0D6E0D2EFED70C2EFCD70B2EFAD77D
:10011C0000007F0E836E0D0E0B6EAF0E0C6EB60EC6
:10012C000D6E0D2EFED70C2EFCD70B2EFAD7000021
:10013C006F0E836E0D0E0B6EAF0E0C6EB60E0D6E3B
:10014C000D2EFED70C2EFCD70B2EFAD7000069D73C
:02015C00FFD7CB
:020000040030CA
:0D000100021F1EFF8381FF0FC00FE00F40A4
:00000001FF
