:100000000EEF00F00000000000EF00F00000000024
:0A0010000000000000000000F3D71C
:10001C00826A946A0F0EC16E070EB46E826A0D0E60
:10002C000B6EAF0E0C6EB60E0D6E0D2EFED70C2E8B
:10003C00FCD70B2EFAD70000010E826E0D0E0B6E44
:10004C00AF0E0C6EB60E0D6E0D2EFED70C2EFCD711
:10005C000B2EFAD70000090E826E0D0E0B6EAF0E32
:10006C000C6EB60E0D6E0D2EFED70C2EFCD70B2E75
:10007C00FAD700000B0E826E0D0E0B6EAF0E0C6ECF
:10008C00B60E0D6E0D2EFED70C2EFCD70B2EFAD7FE
:10009C0000000F0E826E0D0E0B6EAF0E0C6EB60EB8
:1000AC000D6E0D2EFED70C2EFCD70B2EFAD70000A2
:1000BC000E0E826E0D0E0B6EAF0E0C6EB60E0D6E1E
:1000CC000D2EFED70C2EFCD70B2EFAD70000060EE9
:1000DC00826E0D0E0B6EAF0E0C6EB60E0D6E0D2EDF
:1000EC00FED70C2EFCD70B2EFAD70000040E826E16
:1000FC000D0E0B6EAF0E0C6EB60E0D6E0D2EFED7DA
:0E010C000C2EFCD70B2EFAD7000088D7FFD799
:020000040030CA
:0D000100021F1EFF8381FF0FC00FE00F40A4
:00000001FF
