:100000000EEF00F00000000000EF00F00000000024
:0A0010000000000000000000F3D71C
:10001C00806A300E926E826A946A070EB46E0F0E6E
:10002C00C16E80A813D080A80FD0030E0B6E8A0E61
:10003C000C6E550E0D6E0D2EFED70C2EFCD70B2E06
:10004C00FAD700000000EFD7040E826E80AA1FD0F2
:10005C001A0E0B6E5E0E0C6E6E0E0D6E0D2EFED706
:10006C000C2EFCD70B2EFAD7000080AA0FD0030E53
:10007C000B6E8A0E0C6E550E0D6E0D2EFED70C2EC1
:10008C00FCD70B2EFAD700000000EFD7826AC9D735
:02009C00FFD78C
:020000040030CA
:0D000100021F1EFF8381FF0FC00FE00F40A4
:00000001FF
