:1000000047EF04F00000000000EF00F000000000E7
:0A0010000000000000000000F3D71C
:0A001C00530E0D6E0D2EFED71200DC
:10002600240E0C6EB50E0D6E0D2EFED70C2EFCD7C3
:06003600000000001200B2
:0C003C00000000000000000000001200A6
:10004800000195BF02D0839E01D0838E95BD02D05A
:10005800839C01D0838C95BB02D0839A01D0838A7C
:1000680095B902D0839801D0838878B002D0848073
:1000780001D084908482DEDF849295B702D0839E7B
:1000880001D0838E95B502D0839C01D0838C95B323
:1000980002D0839A01D0838A95B102D0839801D087
:1000A800838878B002D0848001D084908482C2DFB3
:0E00B800849278A002D0B3DF01D0ACDF12003A
:1000C600086A096A100E0C6E0134083609360450A7
:1000D600085E0550D8A0053C095ED8B007D004508C
:1000E60008260550D8B0053C0926D89000360136BA
:0600F6000C2EEAD71200F7
:0C00FC00789080C095F0A2DF78801200A0
:1001080010D0800E00018F6F1AD0C00E8F6F17D0DD
:10011800940E8F6F14D0D40E8F6F11D0800E8F6F06
:100128000ED000018F51010AECE08F51020AEDE078
:100138008F51030AEDE08F51040AEDE0EFD79005E7
:10014800006E8F51002600C08FF0788000C095F0B7
:0E01580077DF789091C095F073DF7880120009
:100166000001806B050E805D0AE280519125E16EEB
:10017600000E9221E26E200EE66E802BF3D78051A0
:100186009125E16E000E9221E26EE66A80078051AB
:100196009125936F000E9221946F0A0E046E000E45
:1001A600056E8FC000F090C001F08ADF08C000F035
:1001B60009C001F0300E002693C0E1FF94C0E2FFB3
:1001C60000C0E6FF0A0E046E000E056E8FC000F03A
:1001D60090C001F075DF00C08FF001C090F0000EF6
:1001E600011802E1000E001801E102D08007CFD706
:0201F6001200F5
:0C01F800240E0D6E0D2EFED7000012002C
:10020400400E0001956F1EDF7F6A7F50070811E3DF
:10021400140E7F24F66E0A0EF76E000EF722000EFF
:10022400F86E000EF8220900F5CF80F065DF7F2A12
:10023400ECD7020E956F06DF85C08FF086C090F074
:06024400916B60DF120067
:10024A0000018B6B8C6B85C08DF086C08EF0800EA2
:10025A008619006E800E005C02E1000E855D0BE2DD
:10026A00010E8B6F000E8C6F855100088D6F86C052
:10027A008EF0000E8E578DC08FF08EC090F087C022
:10028A0091F088C092F06ADF060E896F000E8A6FBD
:10029A00000E006E8A51005C02E18951000819E2E1
:1002AA0089518725E16E8A518821E26E010E895DA6
:1002BA00006E000E8A59016E00508725E96E0150C2
:1002CA008821EA6EEECFE6FF010E895F000E8A5B97
:1002DA00DFD787C0E1FF88C0E2FF200EE66E8B51B0
:1002EA008C111AE0896B8A6B89518725E96E8A51CC
:1002FA008821EA6EEE50200A03E1894B8A2BF4D753
:10030A00010E895F000E8A5B89518725E16E8A5149
:0A031A008821E26E2D0EE66E12003F
:100324000B6A0A6A096A00500402F4CF09F0F3CF99
:1003340008F001500502F4CF0BF0F3CF0AF000509F
:100344000502F3500926F4500A22E86A0B220150F0
:100354000402F3500926F4500A22E86A0B2208C06A
:1003640000F009C001F00AC002F00BC003F0120053
:10037400C26A4A1C006E0050C116070EC012C08E1D
:100384007FC000F000360090003600900050C2128A
:10039400C28030DFC282C2A201D0FDD7C4CF01F037
:0E03A400006AC3500012000E0112C290120037
:1003B2000001876B886B85C003F086C004F085C09E
:1003C20005F086C006F003C0E9FF04C0EAFFEE5064
:1003D200200A04E18751881101E110D0010E876FD4
:1003E200000E886F03C0E9FF04C0EAFF05C0E1FF09
:1003F20006C0E2FFEECFE6FF054A062A03C001F07F
:1004020004C002F0034A042A01C0E9FF02C0EAFF65
:10041200EE50000AD8E185C000F086C001F012005B
:100422007F6A7F5000018525E96E000E8621EA6E03
:10043200EE520BE07F508525E96E000E8621EA6EB2
:0C044200EECF80F05ADE7F2AECD71200CB
:10044E0010D0800E0001856F1AD0C00E856F17D0A8
:10045E00940E856F14D0D40E856F11D0800E856FDB
:10046E000ED000018551010AECE08551020AEDE043
:10047E008551030AEDE08551040AEDE0EFD78605BC
:10048E00006E8551002600C085F000C095F0D5DDC8
:10049E0078907F6A7F508725E96E000E8821EA6E7C
:1004AE00EE520BE07F508725E96E000E8821EA6E32
:0E04BE00EECF80F01CDE7F2AEDD77880120092
:1004CC001ED03F0E006E39D0060E006E36D05B0E7D
:1004DC00006E33D04F0E006E30D0660E006E2DD0F5
:1004EC006D0E006E2AD07D0E006E27D0070E006EAA
:1004FC0024D07F0E006E21D06F0E006E1ED07F5068
:10050C00000ADFE07F50010ADFE07F50020ADFE0E3
:10051C007F50030ADFE07F50040ADFE07F50050ABA
:10052C00DFE07F50060ADFE07F50070ADFE07F50F4
:0C053C00080ADFE07F50090ADFE012002F
:08054800BE6ABD98BD9A1200C5
:10055000CB50010F006E016A000E01227DC004F035
:10056000000E056EDFDE060E026E00C004F001C054
:1005700005F0025005E005320432059EFF0FFAD760
:10058000040E016E04C000F0015004E0003600903B
:10059000FF0FFBD7300E0014036E04C000F005C03F
:1005A00001F001320032019E01320032019E00C092
:0C05B000BEFF0F0EBD160350BD1212005E
:1005BC00010E0001856F010E866F300E876F000EE5
:1005CC00886F3FDF020E856F010E866F1F0E876FDF
:0805DC00000E886F36DF1200EB
:1005E400FF0E796EFF0E7A6EFF0E7B6EFF0E7C6E31
:1005F400C26A4A1C006E0050C116070EC012C08E9B
:04060400C28012009E
:100608000900F5CFE6FF0006FBE10106F9E112005B
:10061800969296909598959A959C959E849284909A
:10062800839E839C839A8398FADCF9DCF8DC838ABE
:1006380083888482FFDC8492F2DC8482FBDC8492EF
:10064800EEDC8482F7DC8492EADC83988482F2DC34
:100658008492E5DC8482EEDC8492839A838E8482A1
:10066800E9DC8492DCDC839E83888482E3DC8492E8
:1006780083988482DFDC8492D2DC8482DBDC8492FF
:1006880083888482D7DC8492CADC83988482D2DC13
:100698008492838E838C838A83888482CBDC849241
:0606A800BEDC78801200A8
:1006AE00020E7F6E60DE00C015F001C016F000C0B5
:1006BE0085F001C086F0710E0001876F000E886F05
:1006CE00BDDD020E856F010E866F180E876F000E50
:1006DE00886FB6DE710E856F000E866F9BDE020E82
:0A06EE00856F100E866F87DD120085
:1006F800816A42C07FF0E6DE00C083FF818E0D0E66
:100708000B6EAF0E0C6EB60E0D6E0D2EFED70C2EA8
:10071800FCD70B2EFAD70000819E41C07FF0D2DEB5
:1007280000C083FF818C0D0E0B6EAF0E0C6EB60EE3
:100738000D6E0D2EFED70C2EFCD70B2EFAD700000F
:10074800819C1EC07FF0BEDE00C083FF818A0D0E33
:100758000B6EAF0E0C6EB60E0D6E0D2EFED70C2E58
:10076800FCD70B2EFAD70000819A17C07FF0AADEBB
:1007780000C083FF81880D0E0B6EAF0E0C6EB60E97
:100788000D6E0D2EFED70C2EFCD70B2EFAD70000BF
:040798008198120032
:10079C00010E0001856F010E866F540E876F000EDF
:1007AC00886F4FDE020E856F010E866F4B0E876FC2
:0807BC00000E886F46DE1200FA
:0A07C4009494CA840C0EBD121200BA
:1007CE00806A826A836A846A816A040E926E0F0E50
:1007DE00936E946A956A966A070EB46E0C0EC16E8D
:1007EE00F16A030E426E040E416E1E6A060E176EFD
:0207FE001200E7
:10080000010E0001856F010E866F430E876F000E8B
:10081000886F1DDE7DC085F07EC086F0710E876F0B
:10082000000E886F12DD800E7E18006E800E005C58
:1008300002E10A0E7D5C06E2670E856F000E866F90
:10084000F0DD0ED0800E7E18006E800E005C02E19E
:10085000640E7D5C05E2650E856F000E866FE1DD3E
:10086000710E856F000E866FA4DD00C085F001C09B
:1008700086F0D7DD010E856F0B0E866F6B0E876FCE
:0E088000000E886FE4DD7DC080F038DC1200D1
:10088E000EEC05F0C2DE0C0E0001956F24EC00F0AC
:10089E00010E956F24EC00F09EDECA90CA92F90EFE
:1008AE00CB6E4BDE6AC07DF04CDE85DF89DF6AC021
:1008BE007DF0000E7E6E9DDFF3DE81B027D081B01D
:1008CE000FD0030E0B6E8A0E0C6E550E0D6E0D2E86
:1008DE00FED70C2EFCD70B2EFAD700000000EFD758
:1008EE0066DE55DF330E0B6EBB0E0C6EDF0E0D6E1D
:1008FE000D2EFED70C2EFCD70B2EFAD700000000C3
:10090E0056DE6AC07DF0000E7E6E73DF81B217D0A8
:10091E0081B20FD0030E0B6E8A0E0C6E550E0D6E3D
:10092E000D2EFED70C2EFCD70B2EFAD70000000092
:10093E00EFD7DBDE6AC07DF0000E7E6E5ADF81B42B
:10094E0018D0410E0C6EEE0E0D6E0D2EFED70C2E27
:10095E00FCD7000081B40DD0FF0E6A5C09E26A2A52
:10096E006AC07DF0000E7E6E44DF6AC07DF0E9DD68
:10097E00F1D781B618D0410E0C6EEE0E0D6E0D2E07
:10098E00FED70C2EFCD7000081B60DD06A500008A1
:10099E0009E26A066AC07DF0000E7E6E2ADF6AC02A
:0A09AE007DF0CFDDF1D788D7FFD729
:100A1C0010EE15F05C0E006E010E016EB80EF66E47
:0E0A2C00090EF76E000EF86E04EC03F01200D7
:0209B80000003D
:0109BA00003C
:0609BB004144433220001C
:0109C1000035
:1009C2002020202020202020202020202020202025
:0109D2000024
:1009D3002020202020202020202020202020202014
:0109E3000013
:0109E4000012
:0109E5000011
:0709E600434F4E5441200075
:0109ED0030D9
:0909EE0052413D33343036300033
:1009F70054686961676F20462E2053616E746F7368
:010A070000EE
:020A08003000BC
:030A0A0030300089
:010A0D0000E8
:060A0E00415343202000CB
:080A140000001B0004110E009C
:020000040030CA
:0D000100021F1EFF8381FF0FC00FE00F40A4
:00000001FF
