:0400000046EF04F0D3
:1000080000C015F0F2A40DD0F294324A332A000E43
:10001800331802E17A0E321804E1326A336A434A2D
:08002800442A15C000F011008C
:0A003000530E0D6E0D2EFED71200C8
:10003A00240E0C6EB50E0D6E0D2EFED70C2EFCD7AF
:06004A000000000012009E
:0C00500000000000000000000000120092
:10005C0079BE02D0839E01D0838E79BC02D0839C62
:10006C0001D0838C79BA02D0839A01D0838A79B873
:10007C0002D0839801D083885EB002D0848001D0F6
:10008C0084908482DFDF849279B602D0839E01D083
:10009C00838E79B402D0839C01D0838C79B202D048
:1000AC00839A01D0838A79B002D0839801D0838857
:1000BC005EB002D0848001D084908482C3DF8492AD
:0C00CC005EA002D0B4DF01D0ADDF120056
:1000D800086A096A100E0C6E013408360936045095
:1000E800085E0550D8A0053C095ED8B007D004507A
:1000F80008260550D8B0053C0926D89000360136A8
:060108000C2EEAD71200E4
:10010E000134083609360450085E0550D8A0053C67
:10011E00095E003601360F0E0C6E013408360936B4
:10012E00045000A006D0085E0550D8A0053C095E1C
:10013E0005D008260550D8B0053C092600360136F4
:10014E000C2EEBD700B006D0045008260550D8B0C0
:08015E00053C09260000120017
:10016600766A050E765C0AE276507424E16E000E1D
:100176007520E26E200EE66E762AF3D7765074244A
:10018600E16E000E7520E26EE66A760676507424FD
:10019600776E000E7520786E0A0E046E000E056EE0
:1001A60072C000F073C001F094DF08C000F009C00F
:1001B60001F0300E002677C0E1FF78C0E2FF00C0F4
:1001C600E6FF0A0E046E000E056E72C000F073C0E4
:1001D60001F07FDF00C072F001C073F0000E01185D
:1001E60002E1000E001801E102D07606CFD7120018
:0C01F6005E9072C079F02FDF5E80120076
:100202000450000A08E10550000A05E1FF0E006EE5
:100212007F0E016E57D00D6A096A086A01500010FC
:10022200D8B4000C015005180A6E0ABE0D1E0B6AE6
:1002320005AE05D0041E051E042AD8B4052A01AE57
:1002420005D0001E011E002AD8B4012A0150051053
:100252000A6E0ABE10D05ADF0BB020D00DAE000CD1
:10026200001E011E002AD8B4012A081E091E082AEF
:10027200D8B4092A000C05AE0DD001BE07D001503A
:10028200096E0050086E016A006AE8D7016A006AC6
:10029200002A000C011E001E0B2ADDD7082AD8B442
:1002A200092A0450085CD8A4D9D70550095CD8A4FF
:1002B200D5D7096A086A002AD8B4012A01AECED776
:0602C2000000FF0C120019
:1002C8006E6A6F6A68C070F069C071F0800E691854
:1002D800006E800E005C02E1000E685C0BE2010E0D
:1002E8006E6E000E6F6E68500008706E69C071F017
:1002F800000E715670C072F071C073F06AC074F06D
:100308006BC075F02CDF060E6C6E000E6D6E000E65
:10031800006E6D50005C02E16C50000819E26C50F0
:100328006A24E16E6D506B20E26E010E6C5C006E0B
:10033800000E6D58016E00506A24E96E01506B2062
:10034800EA6EEECFE6FF010E6C5E000E6D5ADFD747
:100358006AC0E1FF6BC0E2FF200EE66E6E506F10C0
:100368001AE06C6A6D6A6C506A24E96E6D506B20F5
:10037800EA6EEE50200A03E16C4A6D2AF4D7010EAA
:100388006C5E000E6D5A6C506A24E16E6D506B20E5
:08039800E26E2D0EE66E12006C
:1003A0006A6A6A506824E96E000E6920EA6EEE52AD
:1003B0000BE06A506824E96E000E6920EA6EEECF09
:0A03C00072F019DF6A2AEDD712006F
:1003CA006A6A6B6A68C003F069C004F068C005F025
:1003DA0069C006F003C0E9FF04C0EAFFEE50200A34
:1003EA0004E16A506B1001E110D0010E6A6E000E32
:1003FA006B6E03C0E9FF04C0EAFF05C0E1FF06C057
:10040A00E2FFEECFE6FF054A062A03C001F004C068
:10041A0002F0034A042A01C0E9FF02C0EAFFEE50D3
:0E042A00000AD8E168C000F069C001F01200BD
:10043800000E251802E10A0E241805E1260E686E42
:08044800000E696EA9DF12002D
:100450000FD0800E636E19D0C00E636E16D0940E4E
:10046000636E13D0D40E636E10D0800E636E0DD009
:100470006350010AEEE06350020AEEE06350030AA3
:10048000EEE06350040AEEE0F0D76404006E6350BF
:10049000002600C063F000C079F0E0DD5E90676A7E
:1004A00067506524E96E000E6620EA6EEE520BE09E
:1004B00067506524E96E000E6620EA6EEECF72F09A
:0A04C0009ADE672AEDD75E80120075
:1004CA00000E251802E1020E241846E1040E046EFD
:1004DA00000E056E22C000F023C001F08DDE08C0B8
:1004EA0000F009C001F0000E011802E1000E001828
:1004FA002AE1640E046E000E056E22C000F023C0CD
:10050A0001F07ADE08C000F009C001F0000E0118FF
:10051A0002E1000E001814E1900E046E010E056E41
:10052A0022C000F023C001F067DE08C000F009C055
:10053A0001F0000E011802E1000E001801E003D0DC
:10054A001D0E636E02D01C0E636E63C064F0000E53
:10055A0063BEFF0E656E22D0000E251802E1040E5E
:10056A00241813E0000E251802E1060E24180DE0E7
:10057A00000E251802E1090E241807E0000E2518BE
:10058A0002E10B0E241801E005D01E0E646E000E67
:10059A00656E04D01F0E646E000E656E800E6518BF
:1005AA00006E800E3118005C02E13050645C04E297
:0A05BA0064C030F065C031F012009B
:1005C4001C0E686E000E696EE9DE000E1B1802E157
:1005D400010E1A180FE1800E3318006E800E005CB5
:1005E40002E13D0E325C06E2470E686E000E696E53
:1005F400D5DE21D045C068F046C069F0500E6A6E61
:10060400000E6B6E5FDE800E4618006E800E005C7E
:1006140002E10A0E455C05E24A0E686E000E696E40
:10062400BDDE500E686E000E696ECDDE00C068F04F
:1006340001C069F0B3DE800E3318006E800E005CDA
:1006440002E13D0E325C06E24E0E686E000E696EEB
:10065400A5DE05D04C0E686E000E696E9FDE43C0A9
:1006640068F044C069F0500E6A6E000E6B6E2ADEAC
:10067400800E4418006E800E005C02E10A0E435C9A
:1006840005E2360E686E000E696E88DE500E686EE6
:10069400000E696E98DE00C068F001C069F07EDE6D
:0206A400120042
:1006A600000E391802E1030E381805E13A0E686E9D
:0806B600000E696E72DE1200F5
:1006BE0030C068F031C069F0500E6A6E000E6B6E7D
:1006CE00FCDD800E3118006E800E005C02E10A0E19
:1006DE00305C05E2200E686E000E696E5ADE500E1A
:1006EE00686E000E696E6ADE00C068F001C069F0C7
:0E06FE0050DE170E686E000E696E4BDE1200A5
:10070C0022C068F023C069F0500E6A6E000E6B6E4A
:10071C00D5DD500E686E000E696E51DE00C068F0BB
:08072C0001C069F037DE120084
:10073400816A0F0E936E0F0EC16E070EB46EF16ACE
:0A074400C50ED56EF28AF28E120087
:10074E000900F5CFE6FF0006FBE10106F9E1120014
:10075E00969296909598959A959C959E8492849053
:10076E00839E839C839A839861DC60DC5FDC838A42
:10077E008388848266DC849259DC848262DC849273
:10078E0055DC84825EDC849251DC8398848259DC51
:10079E0084924CDC848255DC8492839A838E84828C
:1007AE0050DC849243DC839E838884824ADC84926C
:1007BE008398848246DC849239DC848242DC849283
:1007CE00838884823EDC849231DC8398848239DC97
:1007DE008492838E838C838A8388848232DC849293
:0607EE0025DC5E80120014
:1007F400010E636E010E646E160E656E000E666E5B
:1008040025DE5BDF17DE80DF020E636E010E646E91
:10081400190E656E000E666E19DE43DFD1DE12001E
:10082400000E441802E13C0E43182DE1436A446A69
:10083400454A462A000E461802E13C0E451823E1BB
:10084400456A466A344A352A000E351802E1180E04
:10085400341819E1346A356A304A312A34DE000E1C
:10086400311802E1010E30180EE1244A252A000E47
:10087400251802E10D0E241806E1010E246E000E67
:08088400256E224A232A12000E
:10088C006AEC06F051DF65DF0C0E796E2EEC00F091
:10089C00010E796E2EEC00F0BFDFA6DF81B024D004
:1008AC0081B00FD0030E0B6E8A0E0C6E550E0D6EB2
:1008BC000D2EFED70C2EFCD70B2EFAD70000000005
:1008CC00EFD7800E1B18006E800E005C02E1070E45
:1008DC001A5C02E21A4A1B2A000E1B1802E1070ED0
:1008EC001A1802E11A6A1B6A81B213D081B20FD0B6
:1008FC00030E0B6E8A0E0C6E550E0D6E0D2EFED762
:10090C000C2EFCD70B2EFAD700000000EFD71A6A7A
:10091C001B6A000E1B1802E1010E1A183EE181B48D
:10092C001CD081B40FD0030E0B6E8A0E0C6E550EBC
:10093C000D6E0D2EFED70C2EFCD70B2EFAD7000009
:10094C000000EFD7800E4618006E800E005C02E1AE
:10095C003C0E455C02E2454A462A81B61ED081B661
:10096C000FD0030E0B6E8A0E0C6E550E0D6E0D2EE7
:10097C00FED70C2EFCD70B2EFAD700000000EFD7B9
:10098C00800E006E800E4618005C02E14550000897
:10099C0004E2010E455E000E465A000E1B1802E1E1
:1009AC00020E1A183EE181B41CD081B40FD0030E94
:1009BC000B6E8A0E0C6E550E0D6E0D2EFED70C2E78
:1009CC00FCD70B2EFAD700000000EFD7800E35189D
:1009DC00006E800E005C02E1170E345C02E2344AB9
:1009EC00352A81B61ED081B60FD0030E0B6E8A0E3F
:1009FC000C6E550E0D6E0D2EFED70C2EFCD70B2E3D
:100A0C00FAD700000000EFD7800E006E800E35186C
:100A1C00005C02E13450000804E2010E345E000E6A
:100A2C00355A000E1B1802E1030E1A184FE181B45F
:100A3C0025D081B40FD0030E0B6E8A0E0C6E550EA2
:100A4C000D6E0D2EFED70C2EFCD70B2EFAD70000F8
:100A5C000000EFD7010E3824006E000E3920016E15
:100A6C00070E046E000E056E01EC01F008C000F0DC
:100A7C0009C001F000C038F001C039F081B626D0B1
:100A8C0081B60FD0030E0B6E8A0E0C6E550E0D6ECA
:100A9C000D2EFED70C2EFCD70B2EFAD70000000023
:100AAC00EFD7000E391802E1000E381805E1060EDA
:100ABC005F6E000E606E06D0010E385C5F6E000E2D
:100ACC003958606E5FC038F060C039F0000E1B18EA
:100ADC0002E1040E1A183EE181B41CD081B40FD08F
:100AEC00030E0B6E8A0E0C6E550E0D6E0D2EFED770
:100AFC000C2EFCD70B2EFAD700000000EFD7800E7F
:100B0C003118006E800E005C02E11F0E305C02E2B8
:100B1C00304A312A81B61ED081B60FD0030E0B6E2F
:100B2C008A0E0C6E550E0D6E0D2EFED70C2EFCD7AC
:100B3C000B2EFAD700000000EFD7800E006E800E4F
:100B4C003118005C02E13050010804E2010E305E05
:100B5C00000E315A000E1B1802E1050E1A184FE157
:100B6C0081B425D081B40FD0030E0B6E8A0E0C6E9F
:100B7C00550E0D6E0D2EFED70C2EFCD70B2EFAD764
:100B8C0000000000EFD70C0E046E000E056E24C0A2
:100B9C0000F025C001F001EC01F008C000F009C024
:100BAC0001F0010E0024246E000E0120256E81B68A
:100BBC0026D081B60FD0030E0B6E8A0E0C6E550E1E
:100BCC000D6E0D2EFED70C2EFCD70B2EFAD7000077
:100BDC000000EFD7000E251802E1010E241805E1E4
:100BEC000C0E616E000E626E06D0010E245C616EFE
:100BFC00000E2558626E61C024F062C025F0000E14
:100C0C001B1802E1060E1A1840E181B41DD081B404
:100C1C000FD0030E0B6E8A0E0C6E550E0D6E0D2E34
:100C2C00FED70C2EFCD70B2EFAD700000000EFD706
:100C3C00800E2318006E800E270A005C02E10F0E56
:100C4C00225C02E2224A232A81B61FD081B60FD041
:100C5C00030E0B6E8A0E0C6E550E0D6E0D2EFED7FE
:100C6C000C2EFCD70B2EFAD700000000EFD7800E0D
:100C7C00070A006E800E2318005C02E12250E8087F
:0E0C8C0004E2010E225E000E235A06D6FFD7A8
:100CD40010EE16F03A0E006E010E016E9A0EF66ECC
:0E0CE4000C0EF76E000EF86EA7EC03F0120077
:010C9A000059
:020C9B00200037
:010C9D000056
:020C9E00000054
:040CA00030383A00AE
:020CA40030001E
:020CA600E8075D
:020CA8000A0040
:0A0CAA004F75747562726F20200010
:020CB400080036
:020CB60000003C
:020CB800080032
:020CBA00300008
:020CBC00030033
:090CBE00546572636120202000DE
:020CC70000002B
:020CC900060023
:030CCB00202000E6
:020CCE003000F4
:020CD000200002
:020CD2003A00E6
:020000040030CA
:0D000100021F1EFF8381FF0FC00FE00F40A4
:00000001FF
