:100000004CEF01F00000000000EF00F000000000E5
:0A0010000000000000000000F3D71C
:10001C00240E0C6EB50E0D6E0D2EFED70C2EFCD7CD
:06002C00000000001200BC
:0C003200000000000000000000001200B0
:0A003E00530E0D6E0D2EFED71200BA
:1000480039BE02D0839E01D0838E39BC02D0839CF6
:1000580001D0838C39BA02D0839A01D0838A39B807
:1000680002D0839801D083882EB402D0848001D036
:1000780084908482DADF849239B602D0839E01D0DC
:10008800838E39B402D0839C01D0838C39B202D0DC
:10009800839A01D0838A39B002D0839801D08388AB
:1000A8002EB402D0848001D084908482BEDF8492F2
:0C00B8002EA402D0AFDF01D0BEDF12008A
:0C00C4002E9438C039F0BEDF2E841200EC
:1000D0008F0E3324F66E030EF76E000EF722000E1D
:1000E000F86E000EF8220900F5CF83FF08D0818E4C
:1000F00012D0818C10D0818A0ED081880CD03450DF
:10010000010AF5E03450020AF4E03450030AF3E047
:100110003450040AF2E0060E0B6E130E0C6EAD0E98
:100120000D6E0D2EFED70C2EFCD70B2EFAD700002D
:100130000000819881B802D0819A01D0818A81BA69
:1001400002D0819C01D0818C81BC02D0819E01D0E3
:04015000818E12008A
:10015400FF0E2F6EFF0E306EFF0E316EFF0E326EED
:10016400C26A2D1C006E0050C116070EC012C08E4C
:04017400C280120033
:100178000900F5CFE6FF0006FBE10106F9E11200F0
:100188000FD0800E336E19D0C00E336E16D0940E79
:10019800336E13D0D40E336E10D0800E336E0DD064
:1001A8003350010AEEE03350020AEEE03350030AFE
:1001B800EEE03350040AEEE0F0D73404006E33501A
:1001C800002600C033F000C039F03ADF2E94376AB9
:1001D80037503524E96E000E3620EA6EEE520BE0F9
:1001E80037503524E96E000E3620EA6EEECF38F02F
:0A01F80065DF372AEDD72E841200D0
:10020200969296909598959A959C959E84928490B4
:10021200839E839C839A839800DFFFDEFEDE838ABF
:100222008388848205DF8492F8DE848201DF8492EF
:10023200F4DE8482FDDE8492F0DE83988482F8DE2E
:100242008492EBDE8482F4DE8492839A838E8482AB
:10025200EFDE8492E2DE839E83888482E9DE8492EA
:1002620083988482E5DE8492D8DE8482E1DE849201
:1002720083888482DDDE8492D0DE83988482D8DE15
:100282008492838E838C838A83888482D1DE849253
:06029200C4DE2E84120000
:10029800CDEC01F02E902E92806A010E926E0E0E19
:1002A800C16E070EB46EF16A93809382956A939833
:1002B800939A939C939E4ADFA0DF0C0E396EC0DEA2
:1002C800010E396EBDDE81A024D02EB022D02E8042
:1002D800010E336E010E346E150E356E000E366E3D
:1002E8004FDF020E336E010E346E240E356E000E93
:1002F800366E46DF060E0B6E130E0C6EAD0E0D6ECF
:100308000D2EFED70C2EFCD70B2EFAD700000000BE
:1003180002D081A02E9081A226D02EB224D02E8287
:10032800030E336E010E346ECFDE080E336E020EEE
:10033800346ECADE050E336E030E346EC5DE070E4C
:10034800336E040E346EC0DE060E0B6E130E0C6E8A
:10035800AD0E0D6E0D2EFED70C2EFCD70B2EFAD738
:0E0368000000000002D081A22E92ADD7FFD778
:10039A0010EE15F0190E006E010E016E760EF66E55
:0E03AA00030EF76E000EF86EBCEC00F01200B1
:0F03760046656C69706520576F726D6D6174001C
:09038500524120333835373900AC
:01038E00303E
:0A038F003F065B4F666D7D077F6F30
:020000040030CA
:0D000100021F1EFF8381FF0FC00FE00F40A4
:00000001FF
