:100000008EEF00F00000000000EF00F000000000A4
:0A0010000000000000000000F3D71C
:10001C000B6A0A6A096A00500402F4CF09F0F3CFA4
:10002C0008F001500502F4CF0BF0F3CF0AF00050AA
:10003C000502F3500926F4500A22E86A0B220150FB
:10004C000402F3500926F4500A22E86A0B2208C075
:10005C0000F009C001F00AC002F00BC003F012005E
:10006C00CB50010F006E016A000E012216C004F085
:10007C00000E056ECDDF060E026E00C004F001C04E
:10008C0005F0025005E005320432059EFF0FFAD749
:10009C00040E016E04C000F0015004E00036009024
:1000AC00FF0FFBD7300E0014036E04C000F005C028
:1000BC0001F001320032019E01320032019E00C07B
:0C00CC00BEFF0F0EBD160350BD12120047
:0A00D8009494CA840C0EBD121200AD
:0800E200BE6ABD98BD9A120030
:1000EA000900F5CFE6FF0006FBE10106F9E112007F
:1000FA00806A816A826A836A846A926A0F0E936E40
:10010A00946A956A966A0F0EC16E070EB46EF16A0A
:02011A001200D1
:10011C00156AEDDFCA90CA92F90ECB6EDCDF15C002
:10012C0016F09EDFD3DF81B014D0030E0B6E8A0E57
:10013C000C6E550E0D6E0D2EFED70C2EFCD70B2E05
:10014C00FAD70000000081B000D0FF0E155CD8A0DB
:10015C00152A81B214D0030E0B6E8A0E0C6E550E3E
:10016C000D6E0D2EFED70C2EFCD70B2EFAD70000E1
:10017C00000081B200D0FF0E155CD8A0150615C08A
:08018C0016F06EDFD0D7FFD79B
:020000040030CA
:0D000100021F1EFF8381FF0FC00FE00F40A4
:00000001FF
