:1000000049EF04F00000000000EF00F000000000E5
:0A0010000000000000000000F3D71C
:0A001C00210E0D6E0D2EFED712000E
:100026000F0E0C6E470E0D6E0D2EFED70C2EFCD746
:06003600000000001200B2
:06003C00000000001200AC
:10004200000191BF02D0839E01D0838E91BD02D068
:10005200839C01D0838C91BB02D0839A01D0838A86
:1000620091B902D0839801D0838876B002D084807F
:1000720001D084908482E1DF849291B702D0839E82
:1000820001D0838E91B502D0839C01D0838C91B331
:1000920002D0839A01D0838A91B102D0839801D091
:1000A200838876B002D0848001D084908482C5DFB8
:0E00B200849276A002D0B6DF01D0AFDF12003C
:1000C000086A096A100E0C6E0134083609360450AD
:1000D000085E0550D8A0053C095ED8B007D0045092
:1000E00008260550D8B0053C0926D89000360136C0
:0600F0000C2EEAD71200FD
:0C00F600769080C091F0A2DF76801200AE
:1001020010D0800E00018B6F1AD0C00E8B6F17D0EB
:10011200940E8B6F14D0D40E8B6F11D0800E8B6F18
:100122000ED000018B51010AECE08B51020AEDE086
:100132008B51030AEDE08B51040AEDE0EFD78C05F9
:10014200006E8B51002600C08BF0768000C091F0CB
:0E01520077DF76908DC091F073DF768012001B
:100160000001806B050E805D0AE280518D25E16EF5
:10017000000E8E21E26E200EE66E802BF3D78051AA
:100180008D25E16E000E8E21E26EE66A80078051B9
:100190008D258F6F000E8E21906F0A0E046E000E5B
:1001A000056E8BC000F08CC001F08ADF08C000F043
:1001B00009C001F0300E00268FC0E1FF90C0E2FFC1
:1001C00000C0E6FF0A0E046E000E056E8BC000F044
:1001D0008CC001F075DF00C08BF001C08CF0000E08
:1001E000011802E1000E001801E102D08007CFD70C
:0201F0001200FB
:0C01F2000E0E0D6E0D2EFED70000120048
:1001FE00400E0001916F1EDF7F6A7F50070811E3EA
:10020E00100E7F24F66E0A0EF76E000EF722000E09
:10021E00F86E000EF8220900F5CF80F065DF7F2A18
:10022E00ECD7020E916F06DF81C08BF082C08CF08E
:06023E008D6B60DF120071
:100244000001876B886B81C089F082C08AF0800EC0
:100254008219006E800E005C02E1000E815D0BE2EB
:10026400010E876F000E886F81510008896F82C06C
:100274008AF0000E8A5789C08BF08AC08CF083C044
:100284008DF084C08EF06ADF060E856F000E866FD7
:10029400000E006E8651005C02E18551000819E2EF
:1002A40085518325E16E86518421E26E010E855DC0
:1002B400006E000E8659016E00508325E96E0150D0
:1002C4008421EA6EEECFE6FF010E855F000E865BA9
:1002D400DFD783C0E1FF84C0E2FF200EE66E8751C2
:1002E40088111AE0856B866B85518325E96E8651EA
:1002F4008421EA6EEE50200A03E1854B862BF4D765
:10030400010E855F000E865B85518325E16E865163
:0A0314008421E26E2D0EE66E120049
:10031E000B6A0A6A096A00500402F4CF09F0F3CF9F
:10032E0008F001500502F4CF0BF0F3CF0AF00050A5
:10033E000502F3500926F4500A22E86A0B220150F6
:10034E000402F3500926F4500A22E86A0B2208C070
:10035E0000F009C001F00AC002F00BC003F0120059
:10036E00C26A4A1C006E0050C116070EC012C08E23
:10037E007FC000F000360090003600900050C21290
:10038E00C28030DFC282C2A201D0FDD7C4CF01F03D
:0E039E00006AC3500012000E0112C29012003D
:1003AC000001836B846B81C003F082C004F081C0B8
:1003BC0005F082C006F003C0E9FF04C0EAFFEE506E
:1003CC00200A04E18351841101E110D0010E836FE6
:1003DC00000E846F03C0E9FF04C0EAFF05C0E1FF13
:1003EC0006C0E2FFEECFE6FF054A062A03C001F085
:1003FC0004C002F0034A042A01C0E9FF02C0EAFF6C
:10040C00EE50000AD8E181C000F082C001F0120069
:10041C007F6A7F5000018125E96E000E8221EA6E11
:10042C00EE520BE07F508125E96E000E8221EA6EC0
:0C043C00EECF80F05ADE7F2AECD71200D1
:1004480010D0800E0001816F1AD0C00E816F17D0B6
:10045800940E816F14D0D40E816F11D0800E816FED
:100468000ED000018151010AECE08151020AEDE051
:100478008151030AEDE08151040AEDE0EFD78205CE
:10048800006E8151002600C081F000C091F0D5DDDA
:1004980076907F6A7F508325E96E000E8421EA6E8C
:1004A800EE520BE07F508325E96E000E8421EA6E40
:0E04B800EECF80F01CDE7F2AEDD7768012009A
:1004C6001ED03F0E006E39D0060E006E36D05B0E83
:1004D600006E33D04F0E006E30D0660E006E2DD0FB
:1004E6006D0E006E2AD07D0E006E27D0070E006EB0
:1004F60024D07F0E006E21D06F0E006E1ED07F506E
:10050600000ADFE07F50010ADFE07F50020ADFE0E9
:100516007F50030ADFE07F50040ADFE07F50050AC0
:10052600DFE07F50060ADFE07F50070ADFE07F50FA
:0C053600080ADFE07F50090ADFE0120035
:08054200BE6ABD98BD9A1200CB
:10054A00CB50010F006E016A000E01227BC004F03D
:10055A00000E056EDFDE060E026E00C004F001C05A
:10056A0005F0025005E005320432059EFF0FFAD766
:10057A00040E016E04C000F0015004E00036009041
:10058A00FF0FFBD7300E0014036E04C000F005C045
:10059A0001F001320032019E01320032019E00C098
:0C05AA00BEFF0F0EBD160350BD12120064
:1005B600010E0001816F010E826F300E836F000EF7
:1005C600846F3FDF020E816F010E826F1F0E836FF5
:0805D600000E846F36DF1200F5
:1005DE00FF0E776EFF0E786EFF0E796EFF0E7A6E3F
:1005EE00C26A4A1C006E0050C116070EC012C08EA1
:0405FE00C2801200A5
:100602000900F5CFE6FF0006FBE10106F9E1120061
:10061200969296909598959A959C959E84928490A0
:10062200839E839C839A8398FDDCFCDCFBDC838ABB
:100632008388848202DD8492F5DC8482FEDC8492EB
:10064200F1DC8482FADC8492EDDC83988482F5DC2E
:100652008492E8DC8482F1DC8492839A838E8482A1
:10066200ECDC8492DFDC839E83888482E6DC8492E5
:1006720083988482E2DC8492D5DC8482DEDC8492FC
:1006820083888482DADC8492CDDC83988482D5DC10
:100692008492838E838C838A83888482CEDC849244
:0606A200C1DC76801200AD
:1006A800020E7F6E60DE00C015F001C016F000C0BB
:1006B80081F001C082F06F0E0001836F000E846F1D
:1006C800BDDD020E816F010E826F180E836F000E62
:1006D800846FB6DE6F0E816F000E826F9BDE020E96
:0A06E800816F100E826F87DD120093
:1006F200816A42C07FF0E6DE00C083FF818E060E73
:100702000B6E130E0C6EAD0E0D6E0D2EFED70C2E53
:10071200FCD70B2EFAD700000000819E41C07FF06B
:10072200D1DE00C083FF818C060E0B6E130E0C6EA1
:10073200AD0E0D6E0D2EFED70C2EFCD70B2EFAD75A
:1007420000000000819C1EC07FF0BCDE00C083FF61
:10075200818A060E0B6E130E0C6EAD0E0D6E0D2EF3
:10076200FED70C2EFCD70B2EFAD700000000819A80
:1007720017C07FF0A7DE00C083FF8188060E0B6ED4
:10078200130E0C6EAD0E0D6E0D2EFED70C2EFCD779
:0C0792000B2EFAD7000000008198120026
:10079E00010E0001816F010E826F540E836F000EE9
:1007AE00846F4BDE020E816F010E826F4B0E836FD4
:0807BE00000E846F42DE120000
:0A07C6009494CA840C0EBD121200B8
:1007D000806A826A836A846A816A040E926E0F0E4E
:1007E000936E946A956A966A070EB46E0C0EC16E8B
:1007F000F16A030E426E080E416E050E1E6E070E64
:04080000176E12005D
:10080400010E0001816F010E826F430E836F000E93
:10081400846F18DE7BC081F07CC082F06F0E836F22
:10082400000E846F0DDD800E7C18006E800E005C5F
:1008340002E10A0E7B5C06E2650E816F000E826F98
:10084400EBDD0ED0800E7C18006E800E005C02E1A1
:10085400640E7B5C05E2630E816F000E826FDCDD4B
:100864006F0E816F000E826F9FDD00C081F001C0AA
:1008740082F0D2DD010E816F0B0E826F690E836FE1
:0E088400000E846FDFDD7BC080F033DC1200DD
:100892000CEC05F0BDDE0C0E0001916F21EC00F0B6
:1008A200010E916F21EC00F099DECA90CA92630E9C
:1008B200CB6E46DE68C07BF047DE84DF88DF68C02F
:1008C2007BF0000E7C6E9DDFEEDE81B025D081B024
:1008D2000ED0020E0B6E040E0C6EBA0E0D6E0D2EA5
:1008E200FED70C2EFCD70B2EFAD70000F0D762DE13
:1008F20055DF150E0B6E4B0E0C6EBE0E0D6E0D2ED1
:10090200FED70C2EFCD70B2EFAD7000053DE68C0A0
:100912007BF0000E7C6E75DF81B216D081B20ED0F4
:10092200020E0B6E040E0C6EBA0E0D6E0D2EFED75D
:100932000C2EFCD70B2EFAD70000F0D7D9DE68C0F8
:100942007BF0000E7C6E5DDF81B418D01A0E0C6E47
:10095200F80E0D6E0D2EFED70C2EFCD7000081B4C2
:100962000DD0FF0E685C09E2682A68C07BF0000EB9
:100972007C6E47DF68C07BF0E7DDF1D781B618D027
:100982001A0E0C6EF80E0D6E0D2EFED70C2EFCD725
:10099200000081B60DD06850000809E2680668C000
:1009A2007BF0000E7C6E2DDF68C07BF0CDDDF1D7D1
:0409B2008BD7FFD709
:100A180010EE15F05A0E006E010E016EB60EF66E4F
:0E0A2800090EF76E000EF86E01EC03F01200DE
:0209B60000003F
:0109B800003E
:0609B9004144433220001E
:0109BF000037
:1009C0002020202020202020202020202020202027
:0109D0000026
:1009D1002020202020202020202020202020202016
:0109E1000015
:0109E2000014
:0109E3000013
:0709E400434F4E5441200077
:0109EB0030DB
:0909EC0052413A33383537390025
:0F09F50046656C69706520576F726D6D61740097
:020A04003000C0
:030A06003030008D
:010A090000EC
:060A0A00415343202000CF
:080A100000001B0004110E00A0
:020000040030CA
:0D000100021F1EFF8381FF0FC00FE00F40A4
:00000001FF
