:1000000067EF01F00000000000EF00F000000000CA
:0A0010000000000000000000F3D71C
:10001C00240E0C6EB50E0D6E0D2EFED70C2EFCD7CD
:06002C00000000001200BC
:0A003200530E0D6E0D2EFED71200C6
:0C003C00000000000000000000001200A6
:1000480048BE02D0839E01D0838E48BC02D0839CD8
:1000580001D0838C48BA02D0839A01D0838A48B8E9
:1000680002D0839801D0838840B002D0848001D028
:1000780084908482DFDF849248B602D0839E01D0C8
:10008800838E48B402D0839C01D0838C48B202D0BE
:10009800839A01D0838A48B002D0839801D083889C
:1000A80040B002D0848001D084908482C3DF8492DF
:0C00B80040A002D0AFDF01D0B8DF120082
:0C00C400409047C048F0BEDF40801200B2
:1000D000086A080E0C6E003408360450085ED8B06A
:0E00E00002D00826D89000360C2EF5D712005C
:1000EE00446A030E445C0AE244504224E16E000E60
:1000FE004320E26E200EE66E442AF3D7445042248B
:10010E00E16E000E4320E26EE66A4406445042243D
:10011E00456E000E4320466E0A0E046E41C000F07E
:10012E00D0DF08C000F0300E002645C0E1FF46C00B
:10013E00E2FF00C0E6FF0A0E046E41C000F0C1DF10
:10014E0000C041F00050000A01E102D04406DED7A3
:02015E0012008D
:100160000900F5CFE6FF0006FBE10106F9E1120008
:10017000FF0E3C6EFF0E3D6EFF0E3E6EFF0E3F6E9D
:10018000C26A1C1C006E0050C116070EC012C08E41
:04019000C280120017
:10019400969296909598959A959C959E8492849023
:1001A400839E839C839A839837DF36DF35DF838A87
:1001B4008388848241DF84922FDF84823DDF8492AE
:1001C4002BDF848239DF849227DF8398848234DFB3
:1001D400849222DF848230DF8492839A838E8482A5
:1001E4002BDF849219DF839E8388848225DF8492A7
:1001F4008398848221DF84920FDF84821DDF8492BE
:100204008388848219DF849207DF8398848214DFD1
:100214008492838E838C838A838884820DDF849284
:06022400FBDE4080120029
:10022A00436A43504124E96E000E4220EA6EEE52C0
:10023A000BE043504124E96E000E4220EA6EEECFF5
:0A024A0047F03BDF432AEDD7120016
:100254000FD0800E416E19D0C00E416E16D0940E90
:10026400416E13D0D40E416E10D0800E416E0DD06D
:100274004150010AEEE04150020AEEE04150030A07
:10028400EEE04150040AEEE0F0D74204006E415023
:10029400002600C041F000C048F0D4DE4090456A1A
:1002A40045504324E96E000E4420EA6EEE520BE002
:1002B40045504324E96E000E4420EA6EEECF47F029
:0A02C400FFDE452AEDD7408012004E
:1002CE00EFEC01F0806A010E926E0E0EC16E070EFB
:1002DE00B46EF16A9380938444DF55DF0C0E486E42
:1002EE00ACDE010E486EA9DE4094409281A027D06C
:1002FE0040B425D04084010E416E010E426E1D0E9B
:10030E00436E000E446E9FDF020E416E010E426E72
:10031E002C0E436E000E446E96DF330E0B6EBB0E2C
:10032E000C6EDF0E0D6E0D2EFED70C2EFCD70B2E87
:10033E00FAD700000000010E486E7FDE02D081A0C9
:10034E00409481A431D040B22FD0020E0B6E450ED8
:10035E000C6EA90E0D6E0D2EFED70C2EFCD70B2E8D
:10036E00FAD70000000081A41ED040822B2A2B5009
:10037E00FF08D8A02B6A2BC041F0350E426E000E3E
:10038E00436EAEDE010E486E58DE010E416E010E5A
:10039E00426E150E436E000E446E55DF350E416EE5
:1003AE00000E426E3BDF02D081A440929FD7FFD752
:1003DE0010EE15F0200E006E010E016EBE0EF66EC2
:0E03EE00030EF76E000EF86EB0EC00F0120079
:0703BE00436F6E7461200023
:0103C5003007
:0E03C60057696C6C69616D20426173736F0042
:0103D4000028
:0903D5005241203337363738005D
:020000040030CA
:0D000100021F1EFF8381FF0FC00FE00F40A4
:00000001FF
