:10000000E1EF02F00000000000EF00F0000000004F
:0A0010000000000000000000F3D71C
:10001C00240E0C6EB50E0D6E0D2EFED70C2EFCD7CD
:06002C00000000001200BC
:0C003200000000000000000000001200B0
:0A003E00530E0D6E0D2EFED71200BA
:1000480068BE02D0839E01D0838E68BC02D0839C98
:1000580001D0838C68BA02D0839A01D0838A68B8A9
:1000680002D0839801D0838854B802D0848001D00C
:1000780084908482DADF849268B602D0839E01D0AD
:10008800838E68B402D0839C01D0838C68B202D07E
:10009800839A01D0838A68B002D0839801D083887C
:1000A80054B802D0848001D084908482BEDF8492C8
:0C00B80054A802D0AFDF01D0BEDF120060
:1000C400086A096A100E0C6E0134083609360450A9
:1000D400085E0550D8A0053C095ED8B007D004508E
:1000E40008260550D8B0053C0926D89000360136BC
:0600F4000C2EEAD71200F9
:0C00FA00549867C068F0A3DF548812001F
:0C010600240E0D6E0D2EFED7000012001E
:100112000B6A0A6A096A00500402F4CF09F0F3CFAD
:1001220008F001500502F4CF0BF0F3CF0AF00050B3
:100132000502F3500926F4500A22E86A0B22015004
:100142000402F3500926F4500A22E86A0B2208C07E
:1001520000F009C001F00AC002F00BC003F0120067
:10016200086A080E0C6E003408360450085ED8B0D7
:0E01720002D00826D89000360C2EF5D71200C9
:10018000646A050E645C0AE264506224E16E000E4B
:100190006320E26E200EE66E642AF3D76450622478
:1001A000E16E000E6320E26EE66A6406645062242B
:1001B000656E000E6320666E0A0E046E000E056EFC
:1001C00060C000F061C001F07DDF08C000F009C030
:1001D00001F0300E002665C0E1FF66C0E2FF00C0FE
:1001E000E6FF0A0E046E000E056E60C000F061C0EE
:1001F00001F068DF00C060F001C061F0000E01187E
:1002000002E1000E001801E102D06406CFD712000F
:10021000C26A301C006E0050C116070EC012C08E9C
:1002200060C000F000360090003600900050C2120E
:10023000C28069DFC282C2A201D0FDD7C4CF01F063
:0E024000006AC3500012000E0112C29012009C
:10024E00900E6024F66E080EF76E000EF722000E6A
:10025E00F86E000EF8220900F5CF83FF08D0818ECC
:10026E0012D0818C10D0818A0ED081880CD0615032
:10027E00010AF5E06150020AF4E06150030AF3E06E
:10028E006150040AF2E0060E0B6E130E0C6EAD0EEC
:10029E000D6E0D2EFED70C2EFCD70B2EFAD70000AE
:1002AE000000819881B802D0819A01D0818A81BAEA
:1002BE0002D0819C01D0818C81BC02D0819E01D064
:0402CE00818E12000B
:1002D200969296909598959A959C959E84928490E4
:1002E200839E839C839A839898DE97DE96DE838A28
:1002F200838884829DDE849290DE848299DE849259
:100302008CDE848295DE849288DE8398848290DEFD
:10031200849283DE84828CDE8492839A838E8482AA
:1003220087DE84927ADE839E8388848281DE849251
:10033200839884827DDE849270DE848279DE849268
:100342008388848275DE849268DE8398848270DE7C
:100352008492838E838C838A8388848269DE8492EA
:060362005CDE548812006D
:10036800FF0E556EFF0E566EFF0E576EFF0E586E3F
:10037800C26A301C006E0050C116070EC012C08E33
:04038800C28012001D
:10038C00636A030E635C0AE263506124E16E000E43
:10039C006220E26E200EE66E632AF3D7635061246E
:1003AC00E16E000E6220E26EE66A63066350612421
:1003BC00646E000E6220656E0A0E046E60C000F062
:1003CC00CADE08C000F0300E002664C0E1FF65C034
:1003DC00E2FF00C0E6FF0A0E046E60C000F0BBDE58
:1003EC0000C060F00050000A01E102D06306DED7C5
:0203FC001200ED
:0803FE00BE6ABD98BD9A120011
:10040600626A62506024E96E000E6120EA6EEE5266
:100416000BE062506024E96E000E6120EA6EEECFBA
:0A04260067F068DE622AEDD71200CD
:100430000900F5CFE6FF0006FBE10106F9E1120035
:100440000FD0800E606E19D0C00E606E16D0940E64
:10045000606E13D0D40E606E10D0800E606E0DD022
:100460006050010AEEE06050020AEEE06050030ABC
:10047000EEE06050040AEEE0F0D76104006E6050D8
:10048000002600C060F0548800C068F0DDDD54989C
:0A04900062C068F0D9DD5488120044
:0A049A009494CA840C0EBD121200E7
:1004A4000FD0800E606E19D0C00E606E16D0940E00
:1004B400606E13D0D40E606E10D0800E606E0DD0BE
:1004C4006050010AEEE06050020AEEE06050030A58
:1004D400EEE06050040AEEE0F0D76104006E605074
:1004E400002600C060F000C068F0ACDD5498646A77
:1004F40064506224E96E000E6320EA6EEE520BE053
:1005040064506224E96E000E6320EA6EEECF67F059
:0A051400F2DD642AEDD754881200CE
:10051E00400E686E92DD606A080E605C11E29A0E03
:10052E006024F66E080EF76E000EF722000EF86EBF
:10053E00000EF8220900F5CF67F0D8DD602AECD75F
:08054E00020E686E7ADD120056
:10055600CB50010F006E016A000E012260C004F04C
:10056600000E056ED3DD060E026E00C004F001C05B
:1005760005F0025005E005320432059EFF0FFAD75A
:10058600040E016E04C000F0015004E00036009035
:10059600FF0FFBD7300E0014036E04C000F005C039
:1005A60001F001320032019E01320032019E00C08C
:0C05B600BEFF0F0EBD160350BD12120058
:1005C20051EC04F05492549054965494806A040E60
:1005D200926E0C0EC16E070EB46EF16A9380938216
:1005E2009384956A9398939A939C939EBCDE70DE53
:1005F2000C0E686E28DD010E686E25DD8FDFCA9055
:10060200CA92F90ECB6EFADE606AA4DF45DF020EF3
:10061200606E100E616E626A12DF81A027D054B242
:1006220025D05482010E606E010E616E210E626E43
:10063200000E636E36DF020E606E010E616E170EE3
:10064200626E000E636E2DDF330E0B6EBB0E0C6EF0
:10065200DF0E0D6E0D2EFED70C2EFCD70B2EFAD709
:1006620000000000010E686EEEDC02D081A0549200
:1006720081A226D054B024D05480030E606E010EA5
:10068200616EE4DD080E606E020E616EDFDD050E46
:10069200606E030E616EDADD070E606E040E616E2F
:1006A200D5DD060E0B6E130E0C6EAD0E0D6E0D2EFD
:1006B200FED70C2EFCD70B2EFAD70000000002D07A
:1006C20081A2549081A45AD054B658D0020E0B6E17
:1006D200450E0C6EA90E0D6E0D2EFED70C2EFCD7FC
:1006E2000B2EFAD70000000081A447D05486000EDA
:1006F200161802E1010E1518D8B4202A2050FF085E
:10070200D8A0206A000E161802E1010E151835E174
:1007120020C060F01FDF20C060F04D0E616E000E41
:10072200626E33DE010E686E8EDC010E606E010EAB
:10073200616E3F0E626E000E636EB3DE4D0E606E32
:10074200000E616E5FDE020E606E61DD00C060F061
:1007520001C061F0590E626E000E636E10DD020E72
:10076200606E010E616E390E626E000E636E99DE6E
:10077200590E606E000E616E45DE07D081B405D061
:10078200010E156E000E166E549681A65BD054B4FF
:1007920059D0020E0B6E450E0C6EA90E0D6E0D2E6B
:1007A200FED70C2EFCD70B2EFAD70000000081A634
:1007B20048D05484000E381802E1010E3718D8B41C
:1007C2002006010E205C02E2FF0E206E000E381899
:1007D20002E1010E371835E120C060F0BBDE20C017
:1007E20060F04D0E616E000E626ECFDD010E686E1E
:1007F2002ADC010E606E010E616E460E626E000E04
:10080200636E4FDE4D0E606E000E616EFBDD020EFA
:10081200606EFDDC00C060F001C061F0590E626ED6
:10082200000E636EACDC020E606E010E616E310E64
:10083200626E000E636E35DE590E606E000E616EE2
:10084200E1DD07D081B605D0010E376E000E386E9D
:060852005494DDD6FFD72F
:1008A20010EE15F0380E006E010E016E580EF66E47
:0E08B200080EF76E000EF86E18EC02F0120041
:0208580000009E
:09085A00524120333835373900D2
:010863000094
:0F08640046656C69706520576F726D6D61740029
:010873003054
:06087400414443323A004A
:02087A0000007C
:06087C00414443323A0042
:07088200436F6E746120005A
:07088900436F6E7461200053
:0A0890003F065B4F666D7D077F6F2A
:08089A00000A0A00110E000023
:020000040030CA
:0D000100021F1EFF8381FF0FC00FE00F40A4
:00000001FF
