:100000000AEF01F00000000000EF00F00000000027
:0A0010000000000000000000F3D71C
:0C001C00000000000000000000001200C6
:10002800240E0C6EB50E0D6E0D2EFED70C2EFCD7C1
:06003800000000001200B0
:0A003E00530E0D6E0D2EFED71200BA
:1000480039BE02D0839E01D0838E39BC02D0839CF6
:1000580001D0838C39BA02D0839A01D0838A39B807
:1000680002D0839801D0838832B202D0848001D034
:1000780084908482CFDF849239B602D0839E01D0E7
:10008800838E39B402D0839C01D0838C39B202D0DC
:10009800839A01D0838A39B002D0839801D08388AB
:1000A80032B202D0848001D084908482B3DF8492FB
:0C00B80032A202D0B5DF01D0BEDF120082
:0C00C400329238C039F0BEDF32821200E8
:1000D000FF0E2E6EFF0E2F6EFF0E306EFF0E316E76
:1000E000C26A1E1C006E0050C116070EC012C08EE0
:0400F000C2801200B8
:1000F4000900F5CFE6FF0006FBE10106F9E1120075
:100104000FD0800E336E19D0C00E336E16D0940EFD
:10011400336E13D0D40E336E10D0800E336E0DD0E8
:100124003350010AEEE03350020AEEE03350030A82
:10013400EEE03350040AEEE0F0D73404006E33509E
:10014400002600C033F000C039F07CDF3292376AF9
:1001540037503524E96E000E3620EA6EEE520BE07D
:1001640037503524E96E000E3620EA6EEECF38F0B3
:0A017400A7DF372AEDD73282120010
:10017E00969296909598959A959C959E8492849039
:10018E00839E839C839A839848DF47DF46DF838A6A
:10019E00838884823CDF849240DF848238DF8492BD
:1001AE003CDF848234DF849238DF839884822FDFB1
:1001BE00849233DF84822BDF8492839A838E8482AF
:1001CE0026DF84922ADF839E8388848220DF8492B6
:1001DE00839884821CDF849220DF848218DF8492CD
:1001EE008388848214DF849218DF839884820FDFE1
:1001FE008492838E838C838A8388848208DF8492A0
:06020E000CDF3282120039
:1002140058EC01F03290806A010E926E0E0EC16E9F
:10022400070EB46EF16A938051DFA7DF0C0E396EAE
:1002340009DF010E396E06DF81A027D032B025D048
:100244003280010E336E010E346E1F0E356E000EB9
:10025400366E56DF020E336E010E346E150E356E99
:10026400000E366E4DDF060E0B6E130E0C6EAD0EC9
:100274000D6E0D2EFED70C2EFCD70B2EFAD70000D8
:100284000000010E396EDEDE02D081A03290D4D798
:02029400FFD792
:1002B00010EE15F0190E006E010E016E960EF66E20
:0E02C000020EF76E000EF86E7AEC00F01200DF
:090296005241203338353739009C
:01029F00302E
:0F02A00046656C69706520576F726D6D617400F3
:020000040030CA
:0D000100021F1EFF8381FF0FC00FE00F40A4
:00000001FF
