:10000000A9EF01F00000000000EF00F00000000088
:0A0010000000000000000000F3D71C
:10001C00240E0C6EB50E0D6E0D2EFED70C2EFCD7CD
:06002C00000000001200BC
:0A003200530E0D6E0D2EFED71200C6
:0C003C00000000000000000000001200A6
:100048004BBE02D0839E01D0838E4BBC02D0839CD2
:1000580001D0838C4BBA02D0839A01D0838A4BB8E3
:1000680002D0839801D0838838B602D0848001D02A
:1000780084908482DFDF84924BB602D0839E01D0C5
:10008800838E4BB402D0839C01D0838C4BB202D0B8
:10009800839A01D0838A4BB002D0839801D0838899
:1000A80038B602D0848001D084908482C3DF8492E1
:0C00B80038A602D0AFDF01D0B8DF120084
:1000C400086A080E0C6E003408360450085ED8B076
:0E00D40002D00826D89000360C2EF5D7120068
:0C00E20038964AC04BF0AFDF38861200A1
:1000EE00E90E4424F66E040EF76E000EF722000E93
:1000FE00F86E000EF8220900F5CF83FF08D0818E2E
:10010E0012D0818C10D0818A0ED081880CD04550AF
:10011E00010AF5E04550020AF4E04550030AF3E007
:10012E004550040AF2E0060E0B6E130E0C6EAD0E69
:10013E000D6E0D2EFED70C2EFCD70B2EFAD700000F
:10014E000000819881B802D0819A01D0818A81BA4B
:10015E0002D0819C01D0818C81BC02D0819E01D0C5
:04016E00818E12006C
:100172000900F5CFE6FF0006FBE10106F9E11200F6
:10018200969296909598959A959C959E8492849035
:10019200839E839C839A839840DF3FDF3EDF838A7E
:1001A200838884824ADF849238DF848246DF8492A5
:1001B20034DF848242DF849230DF839884823DDFA1
:1001C20084922BDF848239DF8492839A838E8482A5
:1001D20034DF849222DF839E838884822EDF84929E
:1001E200839884822ADF849218DF848226DF8492B5
:1001F2008388848222DF849210DF839884821DDFC9
:100202008492838E838C838A8388848216DF84928D
:0602120004DF3886120033
:10021800FF0E396EFF0E3A6EFF0E3B6EFF0E3C6E00
:10022800C26A301C006E0050C116070EC012C08E84
:04023800C28012006E
:10023C00476A030E475C0AE247504524E16E000E04
:10024C004620E26E200EE66E472AF3D7475045242F
:10025C00E16E000E4620E26EE66A470647504524E2
:10026C00486E000E4620496E0A0E046E44C000F023
:10027C0023DF08C000F0300E002648C0E1FF49C063
:10028C00E2FF00C0E6FF0A0E046E44C000F014DF6B
:10029C0000C044F00050000A01E102D04706DED74E
:0202AC0012003E
:1002AE00466A46504424E96E000E4520EA6EEE5230
:1002BE000BE046504424E96E000E4520EA6EEECF68
:0A02CE004AF008DF462AEDD71200BF
:1002D8000FD0800E446E19D0C00E446E16D0940E06
:1002E800446E13D0D40E446E10D0800E446E0DD0E0
:1002F8004450010AEEE04450020AEEE04450030A7A
:10030800EEE04450040AEEE0F0D74504006E445095
:10031800002600C044F000C04BF092DE3896486AD0
:1003280048504624E96E000E4720EA6EEE520BE074
:1003380048504624E96E000E4720EA6EEECF4AF098
:0A034800CCDE482AEDD738861200FB
:100352007AEC02F0389038923894806A010E926EEC
:100362000E0EC16E070EB46EF16A9380938293846F
:10037200956A9398939A939C939E4DDF01DF0C0E9E
:100382004B6E61DE010E4B6E5EDE81A027D038B06F
:1003920025D03880010E446E010E456E210E466E48
:1003A200000E476E98DF020E446E010E456E150E6A
:1003B200466E000E476E8FDF330E0B6EBB0E0C6E59
:1003C200DF0E0D6E0D2EFED70C2EFCD70B2EFAD79C
:1003D20000000000010E4B6E36DE02D081A0389084
:1003E20081A226D038B224D03882030E446E010E88
:1003F200456E7CDE080E446E020E456E77DE050EFB
:10040200446E030E456E72DE070E446E040E456E98
:100412006DDE060E0B6E130E0C6EAD0E0D6E0D2EF6
:10042200FED70C2EFCD70B2EFAD70000000002D00C
:1004320081A2389281A43DD038B43BD0020E0B6E1B
:10044200450E0C6EA90E0D6E0D2EFED70C2EFCD78E
:100452000B2EFAD70000000081A42AD03884000EA7
:100462001F1802E1010E1E18D8B4202A2050FF08DE
:10047200D8A0206A000E1F1802E1010E1E1818E112
:1004820020C044F03D0E456E000E466ED6DE010ED3
:100492004B6ED9DD010E446E010E456E310E466E75
:1004A200000E476E18DF3D0E446E000E456EFEDEF6
:1004B20007D081B405D0010E1E6E000E1F6E389457
:0404C20064D7FFD725
:1004F40010EE15F0230E006E010E016EC60EF66EA0
:0E050400040EF76E000EF86EB9EC00F0120057
:0904C6005241203338353739006A
:0204CF0000002B
:0104D100002A
:0F04D20046656C69706520576F726D6D617400BF
:0104E10030EA
:0704E200436F6E74612000FE
:0A04E9003F065B4F666D7D077F6FD5
:020000040030CA
:0D000100021F1EFF8381FF0FC00FE00F40A4
:00000001FF
