:10000000A7EF04F00000000000EF00F00000000087
:0A0010000000000000000000F3D71C
:0A001C00530E0D6E0D2EFED71200DC
:10002600240E0C6EB50E0D6E0D2EFED70C2EFCD7C3
:06003600000000001200B2
:0C003C00000000000000000000001200A6
:10004800000192BF02D0819E01D0818E92BD02D064
:10005800819C01D0818C92BB02D0819A01D0818A87
:1000680092B902D0819801D0818835B002D08482BB
:1000780001D084928480DEDF849092B702D0819E82
:1000880001D0818E92B502D0819C01D0818C92B32F
:1000980002D0819A01D0818A92B102D0819801D090
:1000A800818835B002D0848201D084928480C2DFF6
:0E00B800849035A002D0B3DF01D0ACDF12007F
:1000C600086A096A100E0C6E0134083609360450A7
:1000D600085E0550D8A0053C095ED8B007D004508C
:1000E60008260550D8B0053C0926D89000360136BA
:0600F6000C2EEAD71200F7
:0C00FC00240E0D6E0D2EFED70000120029
:1001080000018F6B050E8F5D0AE28F518D25E16E20
:10011800000E8E21E26E200EE66E8F2BF3D78F51E4
:100128008D25E16E000E8E21E26EE66A8F078F51F3
:100138008D25906F000E8E21916F0A0E046E000EB1
:10014800056E8BC000F08CC001F0B9DF08C000F06C
:1001580009C001F0300E002690C0E1FF91C0E2FF17
:1001680000C0E6FF0A0E046E000E056E8BC000F09C
:100178008CC001F0A4DF00C08BF001C08CF0000E31
:10018800011802E1000E001801E102D08F07CFD755
:02019800120053
:10019A000B1E0A1E091E081E082AD8B4092AD8B43A
:0801AA000A2AD8B40B2A120046
:1001B2000450085E0550D8A0053C095E0650D8A040
:1001C200063C0A5E0750D8A0073C0B5E0336070EBA
:1001D2000C6E0334083609360A360B36045003A077
:1001E2000ED0085E0550D8A0053C095E0650D8A086
:1001F200063C0A5E0750D8A0073C0B5E0DD00826CD
:100202000550D8B0053C09260650D8B0063C0A264F
:100212000750D8B0073C0B2603360C2EDAD702342F
:10022200083609360A360B36045003A00ED0085E93
:100232000550D8A0053C095E0650D8A0063C0A5ECF
:100242000750D8A0073C0B5E0DD008260550D8B049
:10025200053C09260650D8B0063C0A260750D8B0FD
:10026200073C0B260236070E0C6E0234083609369E
:100272000A360B36045002A00ED0085E0550D8A0F4
:10028200053C095E0650D8A0063C0A5E0750D8A07D
:10029200073C0B5E0DD008260550D8B0053C092658
:1002A2000650D8B0063C0A260750D8B0073C0B26A9
:1002B20002360C2EDAD70134083609360A360B36E6
:1002C200045002A00ED0085E0550D8A0053C095E7D
:1002D2000650D8A0063C0A5E0750D8A0073C0B5E29
:1002E2000DD008260550D8B0053C09260650D8B0D6
:1002F200063C0A260750D8B0073C0B260136070EEB
:100302000C6E0134083609360A360B36045001A049
:100312000ED0085E0550D8A0053C095E0650D8A054
:10032200063C0A5E0750D8A0073C0B5E0DD008269B
:100332000550D8B0053C09260650D8B0063C0A261E
:100342000750D8B0073C0B2601360C2EDAD7003402
:10035200083609360A360B36045001A00ED0085E64
:100362000550D8A0053C095E0650D8A0063C0A5E9E
:100372000750D8A0073C0B5E0DD008260550D8B018
:10038200053C09260650D8B0063C0A260750D8B0CC
:10039200073C0B260036070E0C6E00340836093671
:1003A2000A360B36045000A00ED0085E0550D8A0C5
:1003B200053C095E0650D8A0063C0A5E0750D8A04C
:1003C200073C0B5E0DD008260550D8B0053C092627
:1003D2000650D8B0063C0A260750D8B0073C0B2678
:1003E20000360C2EDAD700B00ED004500826055085
:1003F200D8B0053C09260650D8B0063C0A2607505C
:08040200D8B0073C0B261200E4
:0C040A0035908BC092F01BDE3580120094
:1004160010D0800E00018B6F1AD0C00E8B6F17D0D4
:10042600940E8B6F14D0D40E8B6F11D0800E8B6F01
:100436000ED000018B51010AECE08B51020AEDE06F
:100446008B51030AEDE08B51040AEDE0EFD78C05E2
:10045600006E8B51002600C08BF0358000C092F0F4
:0E046600F0DD35908DC092F0ECDD3580120097
:10047400400E0001926FE6DD836B8351070811E3A0
:10048400A80E8325F66E0B0EF76E000EF722000EF3
:10049400F86E000EF8220900F5CF8BF0B4DF832B41
:1004A400ECD7020E926FCEDD81C08BF082C08CF04F
:0604B4008D6BAFDF1200AA
:1004BA000900F5CFE6FF0006FBE10106F9E11200AB
:1004CA00C26A241C006E0050C116070EC012C08EEC
:1004DA0081C000F000360090003600900050C21231
:1004EA00C28007DEC282C2A201D0FDD7C4CF01F00A
:0E04FA00006AC3500012000E0112C2901200E0
:10050800969096929398939A939C939E84908492B3
:10051800819E819C819A819882DD81DD80DD818A3E
:100528008188848087DD84907ADD848083DD84906F
:1005380076DD84807FDD849072DD819884807ADD29
:1005480084906DDD848076DD8490819A818E8480AC
:1005580071DD849064DD819E818884806BDD849068
:100568008198848067DD84905ADD848063DD84907F
:10057800818884805FDD849052DD819884805ADD93
:100588008490818E818C818A8188848053DD8490D7
:0605980046DD3580120073
:10059E00FF0E366EFF0E376EFF0E386EFF0E396E83
:1005AE00C26A241C006E0050C116070EC012C08E07
:0405BE00C2801200E5
:1005C20081C0F6FF82C0F7FF83C0F8FF0800F5CFB5
:0405D20000F0120023
:1005D600806A816A826A836A846A010E926E0F0E4D
:1005E600936E946A956A966A070EB46E0E0EC16E85
:0405F600F16A120094
:1005FA000001836B83518125E96E000E8221EA6E28
:10060A00EE520BE083518125E96E000E8221EA6EDB
:0C061A00EECF8BF0F5DE832BEDD7120045
:10062600F2CF03F0F29E81C0F6FF82C0F7FF83C0CF
:10063600F8FFA68EBF0EA616A684A688550EA76E30
:10064600AA0EA76EA68200000A000000026A85C0F4
:10065600E9FF86C0EAFF020E025C16E2016A200E7E
:10066600015C07E2EECFF5FF00000F000000012A53
:10067600F6D7A68EBF0EA616A684550EA76EAA0E90
:10068600A76EA682022AE7D7A69403BE02D0F29EE0
:0606960001D0F28E1200FB
:10069C0010D0800E0001816F1AD0C00E816F17D060
:1006AC00940E816F14D0D40E816F11D0800E816F97
:1006BC000ED000018151010AECE08151020AEDE0FB
:1006CC008151030AEDE08151040AEDE0EFD7820578
:1006DC00006E8151002600C081F000C092F0AEDCAB
:1006EC003590856B85518325E96E000E8421EA6E69
:1006FC00EE520BE085518325E96E000E8421EA6EE3
:0E070C00EECF8BF07CDE852BEDD73580120012
:10071A000450000A12E10550000A0FE10650000ACF
:10072A000CE10750000A09E1FF0E006EFF0E016E90
:10073A00FF0E026E7F0E036E97D00C6A07BE0C2A5C
:10074A000D6A0B6A0A6A096A086A035002100110E4
:10075A000010D8B484D0035007180E6E0EBE0D1EBA
:10076A0007AE0BD0041E051E061E071E042AD8B4A7
:10077A00052AD8B4062AD8B4072A03AE0BD0001E1D
:10078A00011E021E031E002AD8B4012AD8B4022A66
:10079A00D8B4032A035007100E6E0EBE1CD004DD17
:1007AA000CBE36D00DAE5BD0001E011E021E031E0B
:1007BA00002AD8B4012AD8B4022AD8B4032A081EB7
:1007CA00091E0A1E0B1E082AD8B4092AD8B40A2AF6
:1007DA00D8B40B2A44D007AE15D003BE0DD00350AF
:1007EA000B6E02500A6E0150096E0050086E036AC1
:1007FA00026A016A006AD6D7036A026A016A006A53
:10080A00002A000C031E021E011E001E0C8EC7D7F2
:10081A00082AD8B4092AD8B40A2AD8B40B2A045008
:10082A00085CD8A4BFD70550095CD8A4BBD706502A
:10083A000A5CD8A4B7D707500B5CD8A4B3D70B6A05
:10084A000A6A096A086A002AD8B4012AD8B4022AAC
:10085A00D8B4032A03AEA6D70E6A0E88FF0C0E6A16
:0A086A000CA001D095DC000F120075
:100874000001876B886B81C089F082C08AF0800E8A
:100884008219006E800E005C02E1000E815D0BE2B5
:10089400010E876F000E886F81510008896F82C036
:1008A4008AF0000E8A5789C08BF08AC08CF083C00E
:1008B4008DF084C08EF026DC060E856F000E866FE8
:1008C400000E006E8651005C02E18551000819E2B9
:1008D40085518325E16E86518421E26E010E855D8A
:1008E400006E000E8659016E00508325E96E01509A
:1008F4008421EA6EEECFE6FF010E855F000E865B73
:10090400DFD783C0E1FF84C0E2FF200EE66E87518B
:1009140088111AE0856B866B85518325E96E8651B3
:100924008421EA6EEE50200A03E1854B862BF4D72E
:10093400010E855F000E865B85518325E16E86512D
:0A0944008421E26E2D0EE66E120013
:10094E00D8EC05F041DE000E0001816F7F0E826F44
:10095E00000E836F846F2EDE00C025F0000E266E13
:10096E0017DECBDD0C0E926F24EC00F0010E926FB1
:10097E0024EC00F00001816BA1DD00502D2601500A
:10098E002E22000E2F223022314A322A800E3218A9
:10099E00006E800E005C02E1640E315C34E331C007
:1009AE0004F032C005F0000E32BEFF0E066E076E6A
:1009BE002DC000F02EC001F02FC002F030C003F0A9
:1009CE00A5DE00C033F001C034F0316A326A2D6A00
:1009DE002E6A2F6A306A00C081F001C082F03A0E92
:1009EE000001836F000E846F3EDF020E816F010ED9
:1009FE00826F270E836F000E846F49DE3A0E816F71
:100A0E00000E826FF3DD81B024D081B00FD0030EC3
:100A1E000B6E8A0E0C6E550E0D6E0D2EFED70C2E15
:100A2E00FCD70B2EFAD700000000EFD70001254AA5
:100A3E00262A25C041F026C042F0000E816F7F0E9F
:100A4E00826F000E836F846F410E856F000E866F6E
:100A5E00E3DD81B226D081B20FD0030E0B6E8A0E6B
:100A6E000C6E550E0D6E0D2EFED70C2EFCD70B2ECA
:100A7E00FAD700000000EFD7010E255E000E265AB1
:100A8E0025C041F026C042F0000E0001816F7F0E9E
:100A9E00826F000E836F846F410E856F000E866F1E
:100AAE00BBDD81B422D081B40FD0030E0B6E8A0E43
:100ABE000C6E550E0D6E0D2EFED70C2EFCD70B2E7A
:100ACE00FAD700000000EFD7256A266A416A426A0B
:100ADE00000E0001816F7F0E826F000E836F846F98
:100AEE00410E856F000E866F97DD010E0001816F3E
:100AFE00010E826F1D0E836F000E846FC8DD25C040
:100B0E0081F026C082F03A0E836F000E846FABDE4A
:100B1E003A0E816F000E826F69DD020E816F010E3B
:100B2E00826F170E836F000E846FB1DD33C081F0BC
:100B3E0034C082F03A0E836F000E846F94DE3A0E4C
:100B4E00816F000E826F52DD020E816F0F0E826F6B
:100B5E008ADC150E816F000E826F48DD800E26181E
:100B6E00006E800E3418005C02E13350255C02E208
:0A0B7E00828001D08290FED6FFD7DE
:100BB00010EE15F0200E006E010E016E880EF66E1E
:0E0BC0000B0EF76E000EF86E5DEC02F01200E8
:020B8800430028
:060B8A0054656D703D0092
:070B9000436F6E74613D002C
:010B9700302D
:020B980000005B
:060B9A00414443303D0020
:040BA0000000000051
:020BA40000004F
:020BA60000004D
:080BA800070507000000000032
:020000040030CA
:0D000100021F1EFF8381FF0FC00FE00F40A4
:00000001FF
