:04000000F9EF00F024
:1000080000C015F0F2A40CD0F2941A2A1A501E0A55
:1000180007E11A6A192A19503C0A02E1196A182AD2
:10002800F2A205D0F292186A176A166A1B6A15C0FE
:0400380000F01100C3
:10003C001C50000A03E13F0E016E32D01C50010A25
:10004C0003E1060E016E2CD01C50020A03E15B0E7C
:10005C00016E26D01C50030A03E14F0E016E20D016
:10006C001C50040A03E1660E016E1AD01C50050ADE
:10007C0003E16D0E016E14D01C50060A03E17D0ED7
:10008C00016E0ED01C50070A03E1070E016E08D05A
:10009C001C50080A03E17F0E016E02D06F0E016E38
:0600AC0001C000F012008B
:1000B200816A18C01CF0C1DF00C083FF8188070E6F
:1000C2000C6E7D0E0D6E0D2EFED70C2EFCD7819878
:1000D20017C01CF0B2DF00C083FF818A070E0C6ECE
:1000E2007D0E0D6E0D2EFED70C2EFCD7819A16C0FA
:1000F2001CF0A3DF00C083FF1A500F0802E2800E3B
:100102008326818C070E0C6E7D0E0D6E0D2EFED792
:100112000C2EFCD7819C1BC01CF08FDF00C083FF1C
:10012200818E070E0C6E7D0E0D6E0D2EFED70C2EDF
:04013200FCD71200E4
:1001360081B40ED081B402D0B9DFFCD7182A18508A
:100146000A0A02E1186A172A1750060AD8B4176A6B
:1001560081B20AD081B202D0A9DFFCD7162A165086
:100166000A0A02E1166A1B2A1B50020A05E116500A
:0A017600040A02E1166A1B6A120077
:1001800018500A0A02E1186A172A1750060A02E1F3
:10019000176A162A16500A0A02E1166A1B2A1B5011
:1001A000020A05E11650040A02E1166A1B6A1200EF
:1001B0000900F5CFE6FF0006FBE10106F9E11200B8
:1001C000806A926A816A070E936E826A946A836A71
:1001D000956A846A966A0F0EC16E070EB46EF16A54
:1001E000030E186E020E176E090E166E010E1B6EB0
:0201F0001200FB
:1001F200166A176A186A196A1A6A1B6AE0DFC70E5A
:10020200D56EF26AF28AF288F28E52DFB8DF92DF9E
:04021200FCD7FFD73F
:020000040030CA
:0D000100021F1EFF8381FF0FC00FE00F40A4
:00000001FF
