:10000000A9EF01F00000000000EF00F00000000088
:0A0010000000000000000000F3D71C
:10001C00240E0C6EB50E0D6E0D2EFED70C2EFCD7CD
:06002C00000000001200BC
:0A003200530E0D6E0D2EFED71200C6
:0C003C00000000000000000000001200A6
:1000480054BE02D0839E01D0838E54BC02D0839CC0
:1000580001D0838C54BA02D0839A01D0838A54B8D1
:1000680002D0839801D0838841B802D0848001D01F
:1000780084908482DFDF849254B602D0839E01D0BC
:10008800838E54B402D0839C01D0838C54B202D0A6
:10009800839A01D0838A54B002D0839801D0838890
:1000A80041B802D0848001D084908482C3DF8492D6
:0C00B80041A802D0AFDF01D0B8DF120079
:1000C400086A080E0C6E003408360450085ED8B076
:0E00D40002D00826D89000360C2EF5D7120068
:0C00E200419853C054F0AFDF4188120079
:1000EE00820E4D24F66E050EF76E000EF722000EF0
:1000FE00F86E000EF8220900F5CF83FF08D0818E2E
:10010E0012D0818C10D0818A0ED081880CD04E50A6
:10011E00010AF5E04E50020AF4E04E50030AF3E0F5
:10012E004E50040AF2E0060E0B6E130E0C6EAD0E60
:10013E000D6E0D2EFED70C2EFCD70B2EFAD700000F
:10014E000000819881B802D0819A01D0818A81BA4B
:10015E0002D0819C01D0818C81BC02D0819E01D0C5
:04016E00818E12006C
:100172000900F5CFE6FF0006FBE10106F9E11200F6
:10018200969296909598959A959C959E8492849035
:10019200839E839C839A839840DF3FDF3EDF838A7E
:1001A200838884824ADF849238DF848246DF8492A5
:1001B20034DF848242DF849230DF839884823DDFA1
:1001C20084922BDF848239DF8492839A838E8482A5
:1001D20034DF849222DF839E838884822EDF84929E
:1001E200839884822ADF849218DF848226DF8492B5
:1001F2008388848222DF849210DF839884821DDFC9
:100202008492838E838C838A8388848216DF84928D
:0602120004DF4188120028
:10021800FF0E426EFF0E436EFF0E446EFF0E456EDC
:10022800C26A301C006E0050C116070EC012C08E84
:04023800C28012006E
:10023C00506A030E505C0AE250504E24E16E000EE0
:10024C004F20E26E200EE66E502AF3D750504E240B
:10025C00E16E000E4F20E26EE66A500650504E24BE
:10026C00516E000E4F20526E0A0E046E4DC000F0FF
:10027C0023DF08C000F0300E002651C0E1FF52C051
:10028C00E2FF00C0E6FF0A0E046E4DC000F014DF62
:10029C0000C04DF00050000A01E102D05006DED73C
:0202AC0012003E
:1002AE004F6A4F504D24E96E000E4E20EA6EEE520C
:1002BE000BE04F504D24E96E000E4E20EA6EEECF4D
:0A02CE0053F008DF4F2AEDD71200AD
:1002D8000FD0800E4D6E19D0C00E4D6E16D0940EF4
:1002E8004D6E13D0D40E4D6E10D0800E4D6E0DD0C5
:1002F8004D50010AEEE04D50020AEEE04D50030A5F
:10030800EEE04D50040AEEE0F0D74E04006E4D507A
:10031800002600C04DF000C054F092DE4198516AAA
:1003280051504F24E96E000E5020EA6EEE520BE059
:1003380051504F24E96E000E5020EA6EEECF53F074
:0A034800CCDE512AEDD741881200E7
:10035200C6EC02F04192419441964190806A010EAE
:10036200926E0E0EC16E070EB46EF16A9380938286
:100372009384956A9398939A939C939E4CDF00DFA3
:100382000C0E546E60DE010E546E5DDE81A027D02D
:1003920041B225D04182010E4D6E010E4E6E150EF8
:1003A2004F6E000E506E97DF020E4D6E010E4E6EB6
:1003B200240E4F6E000E506E8EDF330E0B6EBB0E90
:1003C2000C6EDF0E0D6E0D2EFED70C2EFCD70B2EF3
:1003D200FAD700000000010E546E35DE02D081A073
:1003E200419281A226D041B424D04184030E4D6EA5
:1003F200010E4E6E7BDE080E4D6E020E4E6E76DEE6
:10040200050E4D6E030E4E6E71DE070E4D6E040E1E
:100412004E6E6CDE060E0B6E130E0C6EAD0E0D6E76
:100422000D2EFED70C2EFCD70B2EFAD700000000A3
:1004320002D081A2419481A43DD041B63BD0020EAC
:100442000B6E450E0C6EA90E0D6E0D2EFED70C2EE8
:10045200FCD70B2EFAD70000000081A42AD04186D7
:10046200000E2E1802E1010E2D18D8B42F2A2F509B
:10047200FF08D8A02F6A000E2E1802E1010E2D18D7
:1004820018E12FC04DF0460E4E6E000E4F6ED5DEB7
:10049200010E546ED8DD010E4D6E010E4E6E380EF9
:1004A2004F6E000E506E17DF460E4D6E000E4E6EF2
:1004B200FDDE07D081B405D0010E2D6E000E2E6E2A
:1004C200419681A63ED041B03CD0020E0B6E450E45
:1004D2000C6EA90E0D6E0D2EFED70C2EFCD70B2E18
:1004E200FAD70000000081A62BD04180000E4018F0
:1004F20002E1010E3F18D8B42F06010E2F5C02E272
:10050200FF0E2F6E000E401802E1010E3F1818E197
:100512002FC04DF0460E4E6E000E4F6E8EDE010E57
:10052200546E91DD010E4D6E010E4E6E310E4F6E08
:10053200000E506ED0DE460E4D6E000E4E6EB6DED2
:1005420007D081B605D0010E3F6E000E406E41907D
:040552001DD7FFD7DB
:10058C0010EE15F02C0E006E010E016E560EF66E6E
:0E059C00050EF76E000EF86EB9EC00F01200BE
:0F05560046656C69706520576F726D6D6174003A
:09056500524120333835373900CA
:02056E0000008B
:01057000008A
:010571003059
:07057200436F6E746120006D
:07057900436F6E7461200066
:02058000000079
:0A0582003F065B4F666D7D077F6F3B
:020000040030CA
:0D000100021F1EFF8381FF0FC00FE00F40A4
:00000001FF
