:10000000A9EF01F00000000000EF00F00000000088
:0A0010000000000000000000F3D71C
:10001C00240E0C6EB50E0D6E0D2EFED70C2EFCD7CD
:06002C00000000001200BC
:0A003200530E0D6E0D2EFED71200C6
:0C003C00000000000000000000001200A6
:1000480063BE02D0839E01D0838E63BC02D0839CA2
:1000580001D0838C63BA02D0839A01D0838A63B8B3
:1000680002D0839801D083884CB802D0848001D014
:1000780084908482DFDF849263B602D0839E01D0AD
:10008800838E63B402D0839C01D0838C63B202D088
:10009800839A01D0838A63B002D0839801D0838881
:1000A8004CB802D0848001D084908482C3DF8492CB
:0C00B8004CA802D0AFDF01D0B8DF12006E
:1000C400086A080E0C6E003408360450085ED8B076
:0E00D40002D00826D89000360C2EF5D7120068
:0C00E2004C9862C063F0AFDF4C88120045
:1000EE00C90E5C24F66E050EF76E000EF722000E9A
:1000FE00F86E000EF8220900F5CF83FF08D0818E2E
:10010E0012D0818C10D0818A0ED081880CD05D5097
:10011E00010AF5E05D50020AF4E05D50030AF3E0D7
:10012E005D50040AF2E0060E0B6E130E0C6EAD0E51
:10013E000D6E0D2EFED70C2EFCD70B2EFAD700000F
:10014E000000819881B802D0819A01D0818A81BA4B
:10015E0002D0819C01D0818C81BC02D0819E01D0C5
:04016E00818E12006C
:100172000900F5CFE6FF0006FBE10106F9E11200F6
:10018200969296909598959A959C959E8492849035
:10019200839E839C839A839840DF3FDF3EDF838A7E
:1001A200838884824ADF849238DF848246DF8492A5
:1001B20034DF848242DF849230DF839884823DDFA1
:1001C20084922BDF848239DF8492839A838E8482A5
:1001D20034DF849222DF839E838884822EDF84929E
:1001E200839884822ADF849218DF848226DF8492B5
:1001F2008388848222DF849210DF839884821DDFC9
:100202008492838E838C838A8388848216DF84928D
:0602120004DF4C8812001D
:10021800FF0E546EFF0E556EFF0E566EFF0E576E94
:10022800C26A361C006E0050C116070EC012C08E7E
:04023800C28012006E
:10023C005F6A030E5F5C0AE25F505D24E16E000EA4
:10024C005E20E26E200EE66E5F2AF3D75F505D24CF
:10025C00E16E000E5E20E26EE66A5F065F505D2482
:10026C00606E000E5E20616E0A0E046E5CC000F0C3
:10027C0023DF08C000F0300E002660C0E1FF61C033
:10028C00E2FF00C0E6FF0A0E046E5CC000F014DF53
:10029C0000C05CF00050000A01E102D05F06DED71E
:0202AC0012003E
:1002AE005E6A5E505C24E96E000E5D20EA6EEE52D0
:1002BE000BE05E505C24E96E000E5D20EA6EEECF20
:0A02CE0062F008DF5E2AEDD712008F
:1002D8000FD0800E5C6E19D0C00E5C6E16D0940ED6
:1002E8005C6E13D0D40E5C6E10D0800E5C6E0DD098
:1002F8005C50010AEEE05C50020AEEE05C50030A32
:10030800EEE05C50040AEEE0F0D75D04006E5C504D
:10031800002600C05CF000C063F092DE4C98606A72
:1003280060505E24E96E000E5F20EA6EEE520BE02C
:1003380060505E24E96E000E5F20EA6EEECF62F038
:0A034800CCDE602AEDD74C881200CD
:10035200EAEC02F04C924C904C964C94806A010E5E
:10036200926E0E0EC16E070EB46EF16A9380938286
:100372009384956A9398939A939C939E4CDF00DFA3
:100382000C0E636E60DE010E636E5DDE81A027D00F
:100392004CB225D04C82010E5C6E010E5D6E1E0EBB
:1003A2005E6E000E5F6E97DF020E5C6E010E5D6E7A
:1003B200150E5E6E000E5F6E8EDF330E0B6EBB0E81
:1003C2000C6EDF0E0D6E0D2EFED70C2EFCD70B2EF3
:1003D200FAD700000000010E636E35DE02D081A064
:1003E2004C9281A226D04CB024D04C80030E5C6E7D
:1003F200010E5D6E7BDE080E5C6E020E5D6E76DEB9
:10040200050E5C6E030E5D6E71DE070E5C6E040EF1
:100412005D6E6CDE060E0B6E130E0C6EAD0E0D6E67
:100422000D2EFED70C2EFCD70B2EFAD700000000A3
:1004320002D081A24C9081A44ED04CB64CD0020E78
:100442000B6E450E0C6EA90E0D6E0D2EFED70C2EE8
:10045200FCD70B2EFAD70000000081A43BD04C86BB
:10046200000E2F1802E1010E2E18D8B42D2A2D509D
:10047200FF08D8A02D6A000E2F1802E1010E2E18D7
:1004820029E12DC058F0596A2DC05CF04D0E5D6E09
:10049200000E5E6ED2DE010E636ED5DD010E5C6E65
:1004A200010E5D6E3C0E5E6E000E5F6E14DF4D0E31
:1004B2005C6E000E5D6EFADE020E5C6E010E5D6E0B
:1004C200370E5E6E000E5F6E06DF580E5C6E000E1B
:1004D2005D6EECDE07D081B405D0010E2E6E000EEB
:1004E2002F6E4C9681A64BD04CB449D0020E0B6EA7
:1004F200450E0C6EA90E0D6E0D2EFED70C2EFCD7DE
:100502000B2EFAD70000000081A638D04C84000ED2
:100512004B1802E1010E4A18D8B42D06010E2D5CCB
:1005220002E2FF0E2D6E000E4B1802E1010E4A1878
:1005320025E12DC05AF05B6A2DC05CF04D0E5D6E58
:10054200000E5E6E7ADE010E636E7DDD010E5C6E64
:10055200010E5D6E430E5E6E000E5F6EBCDE4D0ED2
:100562005C6E000E5D6EA2DE300E5C6E000E5D6E85
:100572009DDE5A0E5C6E000E5D6E98DE07D081B66F
:1005820005D0010E4A6E000E4B6E4C94FFD6FFD77B
:1005D40010EE15F0370E006E010E016E920EF66EDF
:0E05E400050EF76E000EF86EB9EC00F0120076
:090592005241203338353739009D
:0F059B0046656C69706520576F726D6D617400F5
:0105AA000050
:0205AB0000004E
:0605AD0020415343200031
:0105B3003017
:0505B40041534320004B
:0705B900436F6E7461200026
:0705C000436F6E746120001F
:0205C700000032
:0A05C9003F065B4F666D7D077F6FF4
:020000040030CA
:0D000100021F1EFF8381FF0FC00FE00F40A4
:00000001FF
