:1000000051EF06F00000000000EF00F000000000DB
:0A0010000000000000000000F3D71C
:0C001C00000000000000000000001200C6
:10002800240E0C6EB50E0D6E0D2EFED70C2EFCD7C1
:06003800000000001200B0
:0A003E00530E0D6E0D2EFED71200BA
:100048000B840BAE2FEF00F0010E036E026A016AFB
:0A005800006A0A360232FF0E1200A1
:0E006200026A016A006A086A036A000E120050
:10007000086A096A100E0C6E0134083609360450FD
:10008000085E0550D8A0053C095ED8B007D00450E2
:1000900008260550D8B0053C0926D8900036013610
:0600A0000C2EEAD712004D
:1000A6006CBE02D0819E01D0818E6CBC02D0819C38
:1000B60001D0818C6CBA02D0819A01D0818A6CB849
:1000C60002D0819801D0818854B002D0848201D0B8
:1000D60084928480A0DF84906CB602D0819E01D089
:1000E600818E6CB402D0819C01D0818C6CB202D01E
:1000F600819A01D0818A6CB002D0819801D0818822
:1001060054B002D0848201D08492848084DF8490AB
:0C01160054A002D086DF01D08FDF120061
:080122000AAE029E000E12005D
:0C012A00240E0D6E0D2EFED700001200FA
:100136000B800BAEA7EF00F0026A0AAEFF0E026E4E
:0C014600016E006E0A360232FF0E12003D
:100152000B1E0A1E091E081E082AD8B4092AD8B482
:080162000A2AD8B40B2A12008E
:10016A000134083609360450085E0550D8A0053C0B
:10017A00095E003601360F0E0C6E01340836093658
:10018A00045000A006D0085E0550D8A0053C095EC0
:10019A0005D008260550D8B0053C09260036013698
:1001AA000C2EEBD700B006D0045008260550D8B064
:0801BA00053C092600001200BB
:1001C2000B820BAEEBEF00F0036802680168006877
:0801D2000A360232FF0E120092
:0801DA000B6A0B86FF0E1200F8
:1001E2000C6A0E6A0250D8A40AEF01F001C002F0B4
:1001F20000C001F0006A0E860250D8A40AEF01F096
:1002020001C002F0016A0E960E880250D8B41CEFAB
:1002120001F00E50035ED8A4D8A021EF01F0D890CF
:1002220002BE26EF01F0003601360236032E11EF30
:1002320001F021EF01F0010E0C6E12DF29EF01F047
:10024200020E0C6E00DF29EF01F0040E0C6E68DF67
:02025200120098
:10025400696A050E695C0AE269506724E16E000E62
:100264006820E26E200EE66E692AF3D7695067248F
:10027400E16E000E6820E26EE66A69066950672442
:100284006A6E000E68206B6E0A0E046E000E056E18
:1002940065C000F066C001F0E9DE08C000F009C0E6
:1002A40001F0300E00266AC0E1FF6BC0E2FF00C01F
:1002B400E6FF0A0E046E000E056E65C000F066C00F
:1002C40001F0D4DE00C065F001C066F0000E011834
:1002D40002E1000E001801E102D06906CFD7120036
:1002E400FF0E556EFF0E566EFF0E576EFF0E586EC4
:1002F400C26A481C006E0050C116070EC012C08EA0
:04030400C2801200A1
:100308000450085E0550D8A0053C095E0650D8A0E8
:10031800063C0A5E0750D8A0073C0B5E0336070E62
:100328000C6E0334083609360A360B36045003A01F
:100338000ED0085E0550D8A0053C095E0650D8A02E
:10034800063C0A5E0750D8A0073C0B5E0DD0082675
:100358000550D8B0053C09260650D8B0063C0A26F8
:100368000750D8B0073C0B2603360C2EDAD70234D8
:10037800083609360A360B36045003A00ED0085E3C
:100388000550D8A0053C095E0650D8A0063C0A5E78
:100398000750D8A0073C0B5E0DD008260550D8B0F2
:1003A800053C09260650D8B0063C0A260750D8B0A6
:1003B800073C0B260236070E0C6E02340836093647
:1003C8000A360B36045002A00ED0085E0550D8A09D
:1003D800053C095E0650D8A0063C0A5E0750D8A026
:1003E800073C0B5E0DD008260550D8B0053C092601
:1003F8000650D8B0063C0A260750D8B0073C0B2652
:1004080002360C2EDAD70134083609360A360B368E
:10041800045002A00ED0085E0550D8A0053C095E25
:100428000650D8A0063C0A5E0750D8A0073C0B5ED1
:100438000DD008260550D8B0053C09260650D8B07E
:10044800063C0A260750D8B0073C0B260136070E93
:100458000C6E0134083609360A360B36045001A0F2
:100468000ED0085E0550D8A0053C095E0650D8A0FD
:10047800063C0A5E0750D8A0073C0B5E0DD0082644
:100488000550D8B0053C09260650D8B0063C0A26C7
:100498000750D8B0073C0B2601360C2EDAD70034AB
:1004A800083609360A360B36045001A00ED0085E0D
:1004B8000550D8A0053C095E0650D8A0063C0A5E47
:1004C8000750D8A0073C0B5E0DD008260550D8B0C1
:1004D800053C09260650D8B0063C0A260750D8B075
:1004E800073C0B260036070E0C6E0034083609361A
:1004F8000A360B36045000A00ED0085E0550D8A06E
:10050800053C095E0650D8A0063C0A5E0750D8A0F4
:10051800073C0B5E0DD008260550D8B0053C0926CF
:100528000650D8B0063C0A260750D8B0073C0B2620
:1005380000360C2EDAD700B00ED00450082605502D
:10054800D8B0053C09260650D8B0063C0A26075004
:08055800D8B0073C0B2612008D
:0C056000549065C06CF09FDD54801200C8
:10056C00969096929398939A939C939E849084924F
:10057C00819E819C819A819851DD50DD4FDD818A6D
:10058C008188848045DD849049DD848041DD8490C0
:10059C0045DD84803DDD849041DD8198848038DDAB
:1005AC0084903CDD848034DD8490819A818E8480BB
:1005BC002FDD849033DD819E8188848029DD8490B9
:1005CC008198848025DD849029DD848021DD8490D0
:1005DC00818884801DDD849021DD8198848018DDE4
:1005EC008490818E818C818A8188848011DD8490B5
:0605FC0015DD5480120021
:100602000FD0800E5B6E19D0C00E5B6E16D0940EAA
:100612005B6E13D0D40E5B6E10D0800E5B6E0DD06D
:100622005B50010AEEE05B50020AEEE05B50030A07
:10063200EEE05B50040AEEE0F0D75C04006E5B5023
:10064200002600C05BF000C06CF02CDD54905F6AA5
:100652005F505D24E96E000E5E20EA6EEE520BE002
:100662005F505D24E96E000E5E20EA6EEECF65F00B
:0A06720076DF5F2AEDD754801200F6
:10067C0000C008F00150006E016A026A036A0B6A3E
:10068C000C6A016A026A036A960E036E0A6A00AE6D
:10069C0056EF03F0081E001E082AD8B4002A0A8E52
:1006AC0000C001F008C000F0086A026A94DD120074
:1006BC00806A816A826A836A846A030E926E936A84
:1006CC00946A956A966A0D0EC16E070EB46EF16A45
:0406DC0003DE120027
:1006E0005D6A5D505B24E96E000E5C20EA6EEE529E
:1006F0000BE05D505B24E96E000E5C20EA6EEECFED
:0A07000065F02EDF5D2AEDD7120030
:10070A000900F5CFE6FF0006FBE10106F9E1120058
:10071A00C26A481C006E0050C116070EC012C08E75
:10072A005BC000F000360090003600900050C21204
:10073A00C280F6DCC282C2A201D0FDD7C4CF01F0CA
:0E074A00006AC3500012000E0112C29012008D
:100758000450000A12E10550000A0FE10650000A91
:100768000CE10750000A09E1FF0E006EFF0E016E52
:100778007F0E026EFF0E036EA6D0086A096A075044
:10078800D8B457EF04F00350D8B45BEF04F002502C
:1007980006180A6E028E068E0E6A02C008F001C0A4
:1007A8000CF000C00DF004500D5E0550D8A0053CBB
:1007B8000C5E0650D8A0063C085E086A0C6A0D6AF2
:1007C800D8A0EEEF03F0D89002320132003208329E
:1007D800010E0E6E0750035ED8A0FBEF03F07E0EED
:1007E8000E240326D8B060EF04F001EF04F07E0E6B
:1007F8000E240326D8A064EF04F0180E0B6E0D36F5
:100808000C3608360036013602360E360450005EC5
:100818000550D8A0053C015E0650D8A0063C025EF3
:1008280006340E120EA01CEF04F00D8027EF04F022
:10083800045000260550D8B0053C01260650D8B013
:10084800062802260D900B2E03EF04F04DEF04F05E
:10085800D8900036013602360E360450005E055038
:10086800D8A0053C015E0650D8A0063C025E0634BE
:100878000E10010B0D26D8B00C2AD8B4082AD8A41B
:100888004DEF04F008320C320D32032AD8B460EF71
:1008980004F00AAE089E0850026E0C50016E0D500E
:1008A800006E67EF04F0010E94DC67EF04F0020EAF
:1008B80031EC00F067EF04F0040E7FDC67EF04F022
:0808C800080E24EC00F0120000
:1008D0000450000A12E10550000A0FE10650000A18
:1008E0000CE10750000A09E1FF0E006EFF0E016ED9
:1008F000FF0E026E7F0E036E98D00C6A07BE0C2AA4
:100900000D6A0B6A0A6A096A086A0350021001102C
:100910000010D8B484D0035007180E6E0EBE0D1E02
:1009200007AE0BD0041E051E061E071E042AD8B4EF
:10093000052AD8B4062AD8B4072A03AE0BD0001E65
:10094000011E021E031E002AD8B4012AD8B4022AAE
:10095000D8B4032A035007100E6E0EBE1CD0D4DC90
:100960000CBE36D00DAE5BD0001E011E021E031E53
:10097000002AD8B4012AD8B4022AD8B4032A081EFF
:10098000091E0A1E0B1E082AD8B4092AD8B40A2A3E
:10099000D8B40B2A44D007AE15D003BE0DD00350F7
:1009A0000B6E02500A6E0150096E0050086E036A09
:1009B000026A016A006AD6D7036A026A016A006A9B
:1009C000002A000C031E021E011E001E0C8EC7D73B
:1009D000082AD8B4092AD8B40A2AD8B40B2A045051
:1009E000085CD8A4BFD70550095CD8A4BBD7065073
:1009F0000A5CD8A4B7D707500B5CD8A4B3D70B6A4E
:100A00000A6A096A086A002AD8B4012AD8B4022AF4
:100A1000D8B4032A03AEA6D70E6A0E88FF0C0E6A5E
:0C0A20000CA002D0A9EC00F0000F1200A6
:100A2C00616A626A5BC063F05CC064F0800E5C1843
:100A3C00006E800E005C02E1000E5B5C0BE2010EAE
:100A4C00616E000E626E5B500008636E5CC064F0F9
:100A5C00000E645663C065F064C066F05DC067F05C
:100A6C005EC068F02AEC01F0060E5F6E000E606E40
:100A7C00000E006E6050005C02E15F50000819E24D
:100A8C005F505D24E16E60505E20E26E010E5F5C93
:100A9C00006E000E6058016E00505D24E96E01502E
:100AAC005E20EA6EEECFE6FF010E5F5E000E605A2E
:100ABC00DFD75DC0E1FF5EC0E2FF200EE66E615045
:100ACC0062101AE05F6A606A5F505D24E96E6050E4
:100ADC005E20EA6EEE50200A03E15F4A602AF4D7EA
:100AEC00010E5F5E000E605A5F505D24E16E605037
:0A0AFC005E20E26E2D0EE66E120081
:100B06000450000A08E10550000A05E1FF0E006ED8
:100B16007F0E016E58D00D6A096A086A01500010EE
:100B2600D8B4000C015005180A6E0ABE0D1E0B6AD9
:100B360005AE05D0041E051E042AD8B4052A01AE4A
:100B460005D0001E011E002AD8B4012A0150051046
:100B56000A6E0ABE10D0B5EC00F00BB020D00DAE78
:100B6600000C001E011E002AD8B4012A081E091E08
:100B7600082AD8B4092A000C05AE0DD001BE07D04C
:100B86000150096E0050086E016A006AE8D7016AD2
:100B9600006A002A000C011E001E0B2ADDD7082A57
:100BA600D8B4092A0450085CD8A4D9D70550095CE2
:100BB600D8A4D5D7096A086A002AD8B4012A01AE92
:080BC600CED70000FF0C120065
:100BCE000B6A0350D8B42DEF06F002500A6E028E57
:100BDE008E0E035E03AE31EF06F0036C080E035C5F
:100BEE00D8A00CEF06F0036E013602C001F0026AC7
:100BFE00080E035CD8A00CEF06F0036E0136016AF6
:100C0E000350D8A4D89016EF06F00350D8B416EFC0
:100C1E0006F0D89002320132032E10EF06F00BBC14
:100C2E0001A023EF06F0D8A023EF06F0012AD8B4D6
:100C3E00022A02BE40EF06F00AAE46EF06F0021E92
:100C4E00011E012AD8B4022A46EF06F0026A016A92
:100C5E0046EF06F00B800BAE4AEF06F0026A0AAEC4
:100C6E004AEF06F0FF0E026E016E0A3602324AEFAE
:100C7E0006F0010E0C6E9BEC00F04CEF06F0000E31
:100C8E000C6E4CEF06F0FF0E0C6E0150006E025013
:040C9E00016E1200D1
:100CA20074EC07F00ADD61DC0C0E6C6E53EC00F0A4
:100CB200010E6C6E53EC00F0010E5B6E010E5C6E69
:100CC200400E5D6E000E5E6E9BDC020E5B6E010ED0
:100CD2005C6E350E5D6E000E5E6E92DC030E0B6E68
:100CE2008A0E0C6E550E0D6E0D2EFED70C2EFCD7F5
:100CF2000B2EFAD70000000072EC01F05B6A0CDDEB
:100D02000050312601503222000E33223422010ECD
:100D12005B6E02DD0050442601504522000E462241
:100D220047224B4A4C2A4C50010A02E1F40E4B185E
:100D3200D8A4BBD04BC004F04CC005F0000E4CBE92
:100D4200FF0E066E076E31C000F032C001F033C0F4
:100D520002F034C003F0BBDD00C049F001C04AF02C
:100D620000C005F001C006F0053605900636030EF8
:100D7200026E2FC000F030C001F0025005E00036D4
:100D820000900136FF0FFAD70550002606500122C7
:100D92000A0E046E000E056EB5DE00C02FF001C013
:100DA20030F06BDC980E046E6E0E056E020E066E4F
:100DB200800E076ED0DC0ADF00C059F001C05AF085
:100DC20059C02FF05AC030F04BC004F04CC005F0AF
:100DD200000E4CBEFF0E066E076E44C000F045C00A
:100DE20001F046C002F047C003F071DD00C02DF0F3
:100DF20001C02EF000C005F001C006F005360590D6
:100E02000636030E026E2BC000F02CC001F0025019
:100E120005E0003600900136FF0FFAD70550002694
:100E2200065001220A0E046E000E056E6BDE00C033
:100E32002BF001C02CF0316A326A336A346A446A98
:100E4200456A466A476A4B6A4C6A59C05BF05AC0A7
:100E52005CF04D0E5D6E000E5E6EE7DD010E5B6EA8
:100E6200010E5C6E150E5D6E000E5E6E01EC03F0FF
:100E72004D0E5B6E000E5C6E32DC2BC05BF02CC044
:100E82005CF04D0E5D6E000E5E6ECFDD020E5B6E8F
:100E9200010E5C6E200E5D6E000E5E6E01EC03F0C4
:0E0EA2004D0E5B6E000E5C6E1ADC28D7FFD77B
:100EE80010EE15F0380E006E010E016EB00EF66EA3
:0E0EF8000E0EF76E000EF86E85EC03F0120081
:0B0EB000526573706F737461313D0078
:0B0EBB00526573706F737461323D006C
:020EC60000002A
:020EC800000028
:020ECA00000026
:040ECC000000000022
:0B0ED000205475646F6A756E746F002B
:040EDB00204144006E
:040EDF00000000000F
:010EE30030DE
:020EE40000000C
:020EE60000000A
:020000040030CA
:0D000100021F1EFF8381FF0FC00FE00F40A4
:00000001FF
